:100000000100000000000000000400000094511AEC
:100010001CF09FE51CF09FE51CF09FE51CF09FE5A0
:100020001CF09FE51CF09FE51CF09FE51CF09FE590
:1000300023440E38D84405005C44050060440500A4
:10004000B8440500BC440500C0440500C444050094
:10005000D1440500000000EA8E4F01EA28008FE23B
:10006000000C90E800A08AE000B08BE001704AE24A
:100070000B005AE1874F010A0F00BAE814E04FE283
:10008000010013E303F0471013FF2FE14063050065
:10009000906305000030A0E30040A0E30050A0E31F
:1000A0000060A0E3102052E27800A128FCFFFF8A44
:1000B000822EB0E13000A128003081451EFF2FE1E3
:1000C00004309FE503308FE013FF2FE1F541050079
:1000D000F8B5050001F0ADFE0027FF43002804D16C
:1000E000686902F0F4FA00282DD02A895019417964
:1000F00003790906091419430C180E3288180606EC
:10010000360E280001F088FE002807D1617D227D8F
:100110000802083610433606360E03E0607B217B6A
:100120000002084301F04FFE00280CD02200A11D60
:1001300028002E8102F01BFC002804D0280000F0CB
:100140007AFB0020F8BD3800F8BD002070470000A1
:10015000404870B5042B046840680ED14C610B898F
:100160005B18DC799D7923022B43E52B01D1162303
:1001700000E0042354F086EA03E0012B01D14C6136
:10018000F8E7002070BD70B50C00324D1600052B4D
:1001900016D120890019C17882780802104303D152
:1001A000200000F048FB04E02000FFF791FF00284A
:1001B00001D1012070BD32002100286805230DE027
:1001C000032B06D1200001F024FE3200210003237E
:1001D00004E0022B04D1A8683200210054F052EA56
:1001E000002070BD10B51B4C206800280CD101F018
:1001F0001AFE2060184A2021A06054F048EA174AED
:100200006068202154F042EA10BD10B5114C2068FE
:10021000002808D00022132154F038EA206854F056
:100220003AEA0020206010BD70B5040000F07CF8B0
:10023000050001202073200054F030EA280000F06F
:1002400078F870BD0200034810B50068682154F0CA
:100250001EEA10BD0C64050041010000770100009A
:1002600010B554F096E954F01EEA002010BD10B508
:10027000FF48006800022CD5FE4CFF4A0020C11C3C
:100280006163A36B81005350031D6363A36B8918E3
:10029000801C0C284B60F2DBF848FFF7D3FF04F01A
:1002A00069FEFF21F64A2D3102E0401C8842FCDB4A
:1002B00050780028F9D0F3486063F348A063C00782
:1002C0006063F248A063EF480E3860630520A063C6
:1002D00005E0EA48401CFFF7B5FF04F04BFE0120A3
:1002E00010BDE74910B5486004F074FD10BD70B54D
:1002F00004000D00202801D304F03CFEE44EA400CD
:100300003059002801D004F035FE0020355170BD71
:10031000DF4A00218000115008007047DD48006866
:10032000002800D001207047802010B554F0BEE9AD
:1003300010BD10B554F0BAE910BD02688368C168F9
:100340001000184770B5052804D2D34D84002B59EE
:10035000002B01D0012070BD2C23CF4E4343DC3E47
:100360009B192B5135000401F03528516019C260EA
:10037000816000214160C94919615861002070BD48
:10038000FEB50E001700052815D2C349020114312D
:1003900055186968C04B840000290DD101220197CE
:1003A0000096029218594369026954F084E90028C2
:1003B00001D101206860FEBD18591D0054F07EE98E
:1003C00028593A00310054F07EE9285954F07EE96A
:1003D000FEBD10B5040054F07EE9206010BDA849B0
:1003E00070B50878401C0006000E08700121490411
:1003F0004018FFF727FFAA4D6C6AE00705D054F0BC
:100400006EE904F079FEA8176862A64ECC0E59E793
:1004100001000000FC030000000400005AEF5E131E
:10042000A0070CD5A86A02218843A8622020F060AA
:10043000491F6962B1680143B16004F05FFE600763
:1004400005D5A86A04218843A86204F0E8FE2007C5
:100450000AD5A86A08218843A8628020F060C943B1
:100460006962B1680143B160012070BD924870B506
:1004700004688C4EA10706D500210161B26D0120F0
:100480009047022084432006000F03D0E0208443DD
:100490001020044300250AE0E00706D0A8003258E7
:1004A000002A02D021002800904764086D1C002C0F
:1004B000F2D1002070BD70B5FF257F4C6D1CE5604A
:1004C0007E480068002801D0002102E07C4800211D
:1004D000006854F012E9A0682843A060012070BDB4
:1004E00070B50124744D8440EC6020F06DF9A8686B
:1004F0002043A860012070BD6F480121C90310B5D9
:10050000C160704A136A6F4C0023403C2360136241
:1005100082680A438260012010BD674801210904F6
:1005200010B5C160674A536A664C0023403C636063
:10053000536282680A438260012010BD70B50124B5
:100540005D4E8440F46004F037F8050003F032FBA0
:10055000002805D0680509D52A2018F0E1F905E042
:10056000680703D504F016FA04F07DFA280004F0B9
:100570002EF8280004F030F8B0682043B060012065
:1005800070BDFEB5404D4035EC68E00702D0A817BD
:10059000E8600440600704D50420C043E8600420FC
:1005A0008443200606D58020C043E8608020844331
:1005B00054F0A6E8200709D50820C043E8600820C9
:1005C000844322F0FBFC082002F096FFA00606D52B
:1005D0002020C043E8602020844303F096F92004E3
:1005E00007D50126F603300054F08AE8F043E860AE
:1005F000B4436003400F06D00720000421000140EF
:10060000C943E9608443244F2002000F002671375C
:1006100000282FD0200221D51B494039C8688A0103
:100620001043C86028480068002803D188048078F7
:10063000800702D401200005044303F0FDFF0028D9
:1006400004D0012003F02EF903F04AF9BE74802093
:1006500004F051F80120C00554F052E80F200005C5
:100660002040019002F072FE0198C043E8600F2024
:1006700000058443E000400F30D007208006204072
:10068000009023E00029008040200080087601C00F
:1006900040000100206405000F000080FF0C0000F6
:1006A000070080FFB447000478FC0004EC7A0500E2
:1006B0002B03000000300080002800800C6405003F
:1006C000086A050080E80080E069050002F0ADFDE1
:1006D0000098C043E860072080068443E00610D5F8
:1006E0001020C043E8601020844304F0C5F80028BF
:1006F00007D00EF06EF9002803D0BE74102002F06F
:1007000025FC600003D52748E860C0438443A0006F
:1007100003D52548E860C0438443002C23DA012038
:10072000C00702F09DFD2148E860214800780128BB
:1007300019D12048006800281CD01F48C1688201D8
:100740001143C16003F078FF002804D0012003F0BA
:10075000A9F803F0C5F8BE740920000502F0F6FD03
:10076000002004F0EBFA1549886801229205104335
:100770008860FEBD01200005F0E7104B01229205C4
:1007800010B5DA60FFF7FDFE012010BD70B5012540
:100790000A4C2D07E5600DF006F8A0682843A0601C
:1007A000012070BDFFFFFFBFFFFFFFDFFFFFFF7FE7
:1007B00082640500E06905000020008000280080B8
:1007C00010B50400002A03D0200003F015FF00E05C
:1007D0000024200010BD7CB50C0015004979237958
:1007E0000906091419430B198188426924336029C9
:1007F00014D9603920328180517EC906CA0F009217
:100800002A0001A905F0C5FAA071000AE07101985B
:10081000001B2071000A607101207CBD9E51E9A37C
:1008200001000000F80700000004000009358D7F7A
:1008300000207CBD30B5040020202081656920188F
:10084000AD7A05706469E47A44700171090A4171F6
:10085000110A8271C171190A8370C17030BD0028FC
:1008600010B507D00169002905D14189C08803224C
:100870000EF0D0F910BD53F026EF10BD10B5018970
:10088000C1220818418D0024D200914208D10100F4
:10089000062212310C3053F036FA002800D1012420
:1008A000200010BDF0B50400002085B006000390C4
:1008B00002900190208901270519A8780007800F70
:1008C000022800D000276069407A02280BD120005E
:1008D000FFF7D4FF012806D12020A6802073FF490E
:1008E0000869401C0861A08800287ED0002F2CD009
:1008F00017F073FF002828D015F000FF002824D13E
:1009000015F0E6FE002820D120890519E978C807EE
:1009100001D1A81D01E028001230F14A537C002BC0
:100920000DD01289092A0AD10078C00707D088069D
:1009300002D518F096F808E00120019005E00BF0D0
:100940007AFD012801D018F067F80EF096FF002814
:1009500066D0280005F0D4FA002859D1002F12D013
:100960000122200069460FF0D0F900280BD0009832
:10097000002800D0012000284AD000214F200EF08E
:100980001DFD039008E0200002A90FF0BFF8002829
:1009900000D0012000283BD00EF06FFF002846D089
:1009A000D04D01242C6117F0F6FF17F002FF00284C
:1009B0000BD118F027FA002807D1CB480660CB48A6
:1009C00006800320AC7017F0B5FF0399FF200EF0EE
:1009D00074FFC74C2088002804D0C649042008565C
:1009E000401C0BD00224012000E00FE004F054FA78
:1009F000641E07D0287A0028F5D103E00EF029FF05
:100A000026802E721D2017F095FFEE6005B0F0BD18
:100A10006B46187A00280AD12020A680207306E0B1
:100A2000002F04D00222200069460FF06EF90198D1
:100A30000028EBD01B2017F07DFFE7E7FFB581B062
:100A4000002206000D000398417800780F0207434A
:100A50002037380034300104A748090C53F05EEE0B
:100A6000040036D038001430A08020206661208138
:100A700020181421009053F056EE3B04049A1B0CEE
:100A800014212000FFF7D6FE002D12D028892E0059
:100A900028811C360B20072130567156401A0CF065
:100AA000E7FF00990873072030560CF0D4FF009937
:100AB000487334202081039920183A0053F036EE11
:100AC0002000FFF7EFFEA088002804D12000FFF7E8
:100AD000C6FE00209AE72020208117F093FE002810
:100AE00002D0052017F026FFFFF732FC844B0500EB
:100AF000824821001C68002200680523A0472800C6
:100B0000FFF72BFC012081E7FFB50120904083B067
:100B1000039F0406240EFF378137387A0E00150034
:100B200020422ED1FF229132462301A902A80EF0C5
:100B30001BFC002825D0387A182120433872019CEC
:100B40001034200053F0EEED0698002801D1052066
:100B500000E00D20607225722000627A0C990A3044
:100B600053F0E4ED310006220C31A01C53F0DEED11
:100B70000199182088720020C872029903980EF01B
:100B8000BFFB07B0F0BD1A002FE68288602A10D99B
:100B9000603A828048790A790006001410432430B4
:100BA0000871000A4871E62088710020C871012090
:100BB0007047002070471FB501AA0400009202AAE6
:100BC00003AB18F0E2FC019802040298121401042D
:100BD0000914200018F04DFE20000399C030418216
:100BE000019981820299C18220000FF0F9FB1FBD9B
:100BF000F1B5002486B027002600250005A853F093
:100C00009AED0028BDD06B46587DC10601D4800600
:100C1000B7D56B46187D0007000F0128B1D10190B0
:100C2000384800780128ACD00EF027FE15AAB08D08
:100C300001000000F40B000000040000FD5AF8CB96
:100C4000002803D006980EF0C2FDA4E732480078D1
:100C500000280AD16B46987D05072D0F08F0FDF896
:100C6000060007D06D086D0004E0012802D16B4634
:100C7000987D05091E4906980968884209DA1C48CA
:100C80000699406881420ADD1948012780680028DA
:100C900081D0012453F05CED1549C8610DE053F09B
:100CA00058ED1349C96905F049FE1C49884204D82A
:100CB0000F4880680028C8D001240D488168A142EF
:100CC00001D0002F04D0002CBFD0C168B142BCD0ED
:100CD000C6608460104802A9007853F03EED6B4670
:100CE000187D2B000207120F0092220002A817E0C5
:100CF000740C0004785F01C000840500143501C045
:100D0000BC690500AC690500C0680500200D000441
:100D1000106405007C67050038650500404B4C00F9
:100D2000019903F075FF36E7F8B505000C000027C0
:100D3000FFF718FB0090E168A06800232E005940DF
:100D4000584008433BD0A088A779FD4BC1194039D2
:100D50002A1A8C460100D21840315B009A4205D90C
:100D60009A1CA84201D2AE1A00E0AE18664524DDF6
:100D70008E4222DAB0420FDD801B0604360CE16899
:100D8000A068320053F0ECECE160B919A1710121C7
:100D90000843A580A06018E0301A0204120C9742A4
:100DA00000D2A2710021012053F0DAECA268E368BE
:100DB00010431943E160A06007E00EF0C0FB002083
:100DC000A5800121A071A160E0600098FFF7CFFA33
:100DD000F8BDF3B595B0050000200790049003908E
:100DE00016980A27002879D028896E69411920228F
:100DF0000AA853F0A6EC0AA808AB0990D87AC10754
:100E0000D0486844149002D10998801D00E01498DD
:100E100005901698183053F0A8EC08AB997A0007A3
:100E2000C40F0A070020920F022A03D109090907FB
:100E300000D501201699204320310028139124D099
:100E4000FFF790FA01901398BF4A007E4107099876
:100E5000490F0C3004F09EFB07000A2812D2002C28
:100E600005D0B94839010818C168491CC160A88873
:100E7000002807D1B5493801411810AB188800097E
:100E8000FFF752FF0198FFF772FA16990B200856E8
:100E9000FFF7B8FE288920216C182038298120719D
:100EA000000A10AB6071188800092072000A607295
:100EB000B07A2070F07A6070307A06280FD108ABD3
:100EC000D87A80070BD4A07C01210843A0740D20A0
:100ED00080013018C16A491CC16204E008E1A07CAD
:100EE00040084000A074A888002802D1287B202850
:100EF0003ED108ABD87A800601D50120039008AB1B
:100F0000987A0107890F022932D10009000721D5FB
:100F10008F48007800281DD015F0AAFE002819D0AF
:100F20001398007EC00615D58A480068002811D0A5
:100F30008948006800280DD016F0F7FD002809D078
:100F40000EF058F8012805D084480068002801D127
:100F50000120049017F060FC002809D0099804F0E3
:100F6000D9FF002804D102201DF051FC14F068F9CB
:100F700016993000FFF729FE3000C030162112907C
:100F8000415E08000CF07EFD207312981221415E34
:100F900008000CF06AFD08AB6073987A000900073E
:100FA00004D51398007E4007400F00E0FF20A07298
:100FB000A888002804D0099804F0ACFF002872D05B
:100FC0000027A770E770A888002802D1287B202876
:100FD00045D1A07A16F058FD002809D003980028C2
:100FE00004D0002130000AF0B2FF01E05C48077035
:100FF00005980078C00715D107F02FFF0028139837
:10100000007E07D0C006C30F049A0399300008F091
:1010100045FF06E0C006C30F049A0399300009F0AB
:10102000FEFA049008AB987A03990209300016F092
:101030000EFE0498012812D14A480088B1E5B21C7E
:1010400001000000F00F000000040000AE802BA79C
:1010500000280BD0494800220068462153F03EEB9F
:10106000002803D046490120087002E0162017F03E
:1010700075FCFFF781F90700099804F055FF002877
:1010800015D0404E3068002811D020001499062257
:101090001A3053F060EBEB20A07100200200E071E9
:1010A00039483468290000680523A04702E0280079
:1010B000FFF7E9FB380023E0FFE71398007EC00943
:1010C0000DD0169A21002800FFF773FD00281CD1CF
:1010D0000020A070E0702800FFF7D5FB12E0099B0C
:1010E000169A21002800FFF762FD00280DD1A0709C
:1010F000E070FFF741F904002800FFF7C4FB20006F
:10110000FFF73FF9002017B0F0BDA888A070000AD3
:1011100022000B32E0701698D11C04F032FE707A77
:1011200002287ED130001CF091FD0B218901069030
:101130004018007A0190002008AB0890987EC00704
:1011400024D0012008900198C0076AD00198800738
:1011500067D43BE0FF0700003A0000005849000454
:10116000484A0004E6680500F8680500F4680500D0
:101170004C690500E5680500408605000C64050023
:10118000E26805007C6705001064050014981DF0F6
:1011900092FC0028079071D0707A02286ED10798CF
:1011A000407BC0066AD50798F17AC07A81427ED129
:1011B0000A2F63D301984007019802D4C0075DD07D
:1011C00004E0C00784D00198400781D4FA48002287
:1011D0000188FA48032318F0A0FD002800904AD0A7
:1011E0000099A888888000F044FE00990004000C53
:1011F0000881009908220A73009940181221019071
:1012000053F0A4EA01981421017100214171E179A0
:10121000A0790902014301988171090AC1710698F8
:1012200000E02BE0406A012808D10798002805D08B
:10123000707B000702D50198A17A0173607921794A
:1012400000060014084301190198AA88143053F0CD
:1012500082EA0099306948610198F17A41700198F9
:10126000B17A01700199A8888870000AC870009846
:10127000042100F0EBFD08980028A3D017F0D6FA5F
:10128000002802D0052017F069FB0A2F0BD2CC48AA
:1012900039010818083003C8002358405940084352
:1012A00001D00EF056F9FFF767F8002200E024E0C5
:1012B0000290C54BC34829001D6800680523A84754
:1012C00005000298FFF75DF8012D09D10A2F07D21A
:1012D000BB483901091810AB18880009FFF72EFD2B
:1012E000A07A16F0DBFB002813D0039801280AD15E
:1012F000002130000AF035FE0BE001980007BDD553
:101300000A2FBBD3E4E60398002802D1AF4800219E
:10131000017005980078C00715D107F0A8FD0028D6
:101320001398007E07D0C006C30F049A03993000BB
:1013300008F0BEFD06E0C006C30F049A0399300012
:1013400009F077F9049008AB987A03990209300004
:1013500016F087FC0498012812D19D4800880028C7
:101360000BD09C4800220068462153F0B8E90028C1
:1013700003D099490120087002E0162017F0EEFA18
:101380000120C0E6FFB59FB00600080037680021C5
:10139000179121997C69002910D040301E9053F09C
:1013A000EEE9229905004118C0782031400602D4A8
:1013B000B88823B0F0BD2888682801D80020F8E755
:1013C00019AA18910092219918981AAA17AB04F03B
:1013D00069FD280004F0A0FD002853D07F480021BB
:1013E00004AA01AB07C318AB7D4A00921D7910AB6C
:1013F0001A7F38002B001AA907F0E7FA05002DD153
:101400002000FF308130017A090624D5002C0CD051
:101410000B21890161184968002906D018AB1A7997
:10142000920068328B585B1C8B50017A4906490E3A
:1014300001721E9853F0A2E918AB1D7921992A0177
:10144000521B52180E320092010010AB0CB51760FF
:1014500001000000EC1300000004000011450E1410
:101460001B7F2A002000FFF76DFB00203060AFE7F4
:10147000356028891E99401952F030ED0088A88007
:101480002000FF30813018AB1B7901263200017A31
:101490009A40914301721DE010AB197F00910195B4
:1014A0002A8818991898643A091D1AAB04F09AFF13
:1014B00006001CD0200018AB1A79FF3081300123C0
:1014C000017A934099430172288808382880B888A7
:1014D0000838B880002C08D00B2080012018406804
:1014E000002802D0416E491C416630006BE7002C99
:1014F00014D00B2080012018416800290ED018ABB1
:101500001A79920068328B585B1C8B5041680A69CB
:10151000521C0A614068C168491CC1601E9853F0A2
:1015200038E9010018AB1879219A03011B1A9A189F
:101530000E320092020010AB1B7F2000FFF702FB6F
:10154000D3E700280CD00B218901411848680028F6
:1015500006D00269521C02614868C16C491CC16412
:10156000704701207047FFB583B004001E000C9F38
:101570000E9D1EF08BFC002821D0607A02281ED020
:10158000082E1CD3082F02D3012007B0F0BD38006D
:1015900006F093FF03008000BB250019AD00119AEF
:1015A000109940196D4607C55800BF2100198900E0
:1015B00043180D9A0599049804F026FBE5E70FA857
:1015C00007C86C462B0007C4F3E70000CA69050092
:1015D0000C0D0004484A0004106405007C670500F7
:1015E000E5680500408605000C640500E26805001A
:1015F00044F70500645601C0F7B592B014000F001F
:10160000129800680D9000200A900D984569080016
:101610004030119053F0BCE80600243009902800B7
:101620001DF0D9FE21002C311091091D2037002812
:101630000F9122D0109807AA08A903AB07C36B46E5
:10164000E0790F9A0107387E090F4007400F07C362
:101650000021B078099A03092800FFF784FF0028C9
:101660000BD0002D08D00B208001281840680028DE
:10167000F8D0016D491C01658AE030886828FBD9E3
:1016800022004C3268380304111F081F0692021F03
:101690000591049003920C3938381C3A029101905C
:1016A0000092387E1B0C47077F0F1A000999300003
:1016B0003B0004F0D5FD0700300004F037FC0028A3
:1016C0003ED00AA9009100200BAA01920A900D9B1E
:1016D000099A3100380004F04AFA002858D0FE4A2E
:1016E0000092FE4AFE4B0D98310007F0A6F8002844
:1016F00002D1129908604BE0129906000860018936
:101700000818119952F0EAEB0E900A9800284AD076
:101710000BAA009209990E982300320004F056FAA1
:10172000070040D1002D08D00B2080012818406808
:10173000002802D00168491C01600E98807922E0DF
:10174000002F28D03807800F0FD0002D20D00B207D
:1017500080012918486800281AD0C26C521CC26443
:1017600048680169491C016112E0B80710D5002DD5
:1017700008D00B20800128184068002802D001689A
:10178000491C0160B079C107C90F28001BF0E0F9BE
:10179000002015B0F0BD3088143830800D980D99B8
:1017A000808814388880079C6B461A8C10990F9893
:1017B000230004F026FA002F0AD1002D08D00B20B8
:1017C000800128184068002802D0416E491C4166FB
:1017D0000120DEE7F7B582B0140000250298076803
:1017E00003980197403052F0D4EF0600C0787F692B
:1017F000400605D42037B87E400732D4012530E0BA
:10180000002C02D1002005B0F0BDA07AC00721D085
:10181000E0790007000F012805D10399220001A8F3
:10182000FFF7EAFE05E003992200042301A8FFF771
:10183000B3FD0299050001980860B079C00710D186
:10184000002D0ED0A07980070BD52100380001F0C3
:1018500091F806E00B208001381840680850130703
:1018600001000000E817000000040000429FDD783E
:101870008168491C81602800CFE77FB504000E0015
:101880001D00142152F092EF25606B46A672188954
:1018900020817FBDF0B5C36802691900114301D1F1
:1018A0000020F0BD0125002B0DD0002A21D11F21E1
:1018B0002A008A40134203D1491E0906090EF7D1B6
:1018C000CB40C3600CE0002A13D01F212B008B40BB
:1018D0001A4203D1491E0906090EF7D1CA40026116
:1018E0000289130712091B0F511809010B430381C9
:1018F000D6E700210C000F008C468E4601E0002C3C
:101900000ED101258D402A4222D0002920D04D1E23
:101910000126AE401D0035421AD001240F0017E009
:1019200001258D4016002E4212D11F2910D21E0013
:101930002E420DD00124BC406D1E641EA54364469A
:1019400025434C1E2406240E0027A6463C00AC4628
:10195000491C0906090E2029D1D3714600290CD053
:10196000CB40CA40C360026101890A070B09714676
:10197000120F591809010A4302816046F0BD70B583
:101980000400008988B006092000FFF783FF0028C3
:10199000019023D0182102A852F008EF21680622F6
:1019A000FF318B3102AD03A852F0E8EEA07A6B460E
:1019B000987428000422103001A99E8252F0DEEEB5
:1019C00004206B46D882FF209A301881102058815D
:1019D00020681423592102AA0DF079FD08B070BDCA
:1019E000080000214160CAE7F7B582B00C00FF276C
:1019F00004980026403052F0D6EE05002168029887
:101A0000814253D1A8780107890F02294ED10009DC
:101A10000DD004280AD0082802D00C2808D10126AD
:101A200004982030007E47077F0F01E00126002741
:101A3000A07AB8423AD1288B218900090909401AB5
:101A400001D420281BD360680027002802D003F0AF
:101A5000A0FC67602000FFF792FF288B2189000916
:101A60000A09801A01D4202809D3E76008072761F2
:101A7000298B000F09090901084320810020012159
:101A8000002E04D0226981400A43226103E0E2680B
:101A900081400A43E2606068002807D1002200927A
:101AA000154A1648231D210003F021FCB5E6F0B5C8
:101AB000002599B003950295A7E10020059002F05A
:101AC000AEF80D980007C00FC00004900698018979
:101AD000081807A952F077FC1798002810D106982B
:101AE00000218180FEF7E3FE8FE10000585601C01F
:101AF000605601C044F70500400D0300591900006D
:101B000017980C301CF0EBFF040005D11799012049
:101B100012311DF007F80400179920000FF072FA37
:101B20000028DCD1002CDAD006994C61607A0228BA
:101B30000CD120001BF00DFF0C300290607B179A37
:101B4000C0060699C00F04F0ABF814E0207A012813
:101B500001D0062809D12300179A9C33012004F0F4
:101B6000A9F820001DF0CBFB05E02300179A9C3359
:101B7000012004F0C2F8069801890F18F978C90706
:101B800001D1BE1D01E03E0012360B218901611812
:101B900018914968002902D00A6B521C0A633178F7
:101BA000C90706D018994968002902D04A6B521C0F
:101BB0004A63818800296CD00499002943D1317887
:101BC000C90736D1B8780007800F02283BD19F495A
:101BD000200007AAFFF708FFB87800090C2815D0E5
:101BE000082804D110AB187D4007400F00E000200A
:101BF00003900A224000009202191300FF33FF32C3
:101C0000179906987933693204F0ACF80698808801
:101C1000002818D1200007A9FEF7F5FF0698FEF767
:101C200046FE18984068002802D0016A491C0162EB
:101C3000EBE0312109016218390004F082F80698BE
:101C400080880028B7D0607A022827D1200007A911
:101C500013F0F4F817990298C978007EC906C90FE5
:101C6000884202D0200012F091FF2000047860F733
:101C700001000000E41B000000040000B6F0A8CC46
:101C80000FF04FFB200010F0FDFC012803D1179945
:101C9000200012F0E0F802984030007D032803D0C5
:101CA00006990020888099E0069880880028FAD05C
:101CB0003078C0070AD101F0B9FF002806D1069894
:101CC00008AB8188DA7D07A808F0C4FD179804F0F6
:101CD00033F8002812D00698624A8188634B403955
:101CE000818000920189604A091806F0BAFD002837
:101CF000A8D006900189081817906FE0179880798E
:101D0000C0075B4828D02218906A00282AD0617A40
:101D1000032925D11799083005002431C9784030AE
:101D2000007C8909884204D152488169491C81613B
:101D300018E0D06A00280AD008305022125C8A428B
:101D400005D14C4905004869401C48610AE04949F1
:101D50008869401C886105E02018006B002801D0CC
:101D600005000835002D4ED0E9790807000F02283C
:101D700001D0032813D1039A179952001219FF3288
:101D80006132128B0120002A00D0002004F0CFF82D
:101D9000069833002A0007A91EF0EAFC17E0012884
:101DA00001D0080729D100201EF016FB0028FAD127
:101DB0002A0007A906A8FFF721FD002804D10698EC
:101DC00000282CD0002181800598002806D0E879D1
:101DD0000007000F022808D0032806D00698FEF757
:101DE00093FD069807A9FFF71CF808F062FF00288A
:101DF00015D0012008F0B1FF1AE01F48FEF768FA7D
:101E000003F0FEF8EAE7189840688168491C816091
:101E10001798BF21C07808401799C87040E7012182
:101E2000002007AA0BF09AFA0028069000D04EE690
:101E300012498020C04308610CF0B2FF002802D094
:101E4000042008F08AFF0E490020C860086119B01C
:101E5000F0BD0C4A01000120914200D000207047E3
:101E6000507B0500585601C0605601C044F705007C
:101E700080020000740C00040200010000A5008034
:101E800000840500888E000002220B0010B50100BE
:101E900002730D481C22006852F03AEC10BD4069F4
:101EA0000069704710B540691CF0E3FF10BDB02019
:101EB0007047010005A010B552F086EC10BD10B5BA
:101EC000406920F084FD10BD106405007364696FE3
:101ED00000000000F3B5002406002500002881B0B2
:101EE00014D0707A022811D002E0012003F006F825
:101EF00028006D1C022807D20022F948110052F078
:101F000040EC0400F1D00AE0002C08D10022F54892
:101F10001100032317F01FFF040000D1FEBD66610E
:101F2000FFF7C5FF0004000C2081082705191421C4
:101F30002800277352F028EC30001DF02BFF287387
:101F40001420287100206871380AAF71E871B07AE6
:101F50002870F07A68700298143505602000FEBD84
:101F600010B504000321323052F00EEC20001C2189
:101F7000353052F00AEC2034A07D01210843A075D1
:101F800010BD70B50400FFF7EBFF2000FF30FF220B
:101F90000421953052F01CEC2000FF2154304131D7
:101FA000050052F00EECFF34413401210020616144
:101FB000A0612074280006F01BF970BD03210902FE
:101FC00070B54418A169002927D1007A002803D0F0
:101FD000032801D0042820D1FEF7ECF90500C248FF
:101FE0000021FF2299324A438258002A0AD1FF2356
:101FF0009933594301220E1842503000FFF7C1FFB8
:10200000A66102E0491C0229EBDB2800FEF7D7F9A4
:10201000A069002801D102F0F3FF70BD032109027D
:1020200040188169002902D000220A60826170474D
:1020300010B50289123112189170090AD1700F215E
:10204000FFF722FF10BD0A0003210902411810B555
:102050008969263152F0C0EB10BDF0B58FB0060093
:10206000149D159C1700092916D1382101A852F09A
:10207000A8EB04206B4698809C48D8807972FEE2D9
:1020800001000000E01F000000040000E52A7BA022
:1020900002A806223900801C1D8152F084EB04A89E
:1020A0002A002100801C52F07EEB05E02300002274
:1020B000290001A805F0BDFD300001A91FF033F88B
:1020C0000FB0F0BDFEB50C3A0D0014060700240E4B
:1020D0001021102C00D82100032000023E18B06906
:1020E0000A00FF3029006D30083152F05CEBB26914
:1020F0000094FF326D3201922B78AA1C092138001E
:10210000FFF7B5FFFEBD10B5040008004979C90608
:1021100015D5010060318A784B78110219430922E4
:10212000633005F054FE002809D00321090261182C
:102130008B694278811DA4332000FFF7C3FF012083
:1021400010BDF8B50D00060006F043F8040025D0D8
:1021500029002A00AC3150322000009105F06AFEBF
:1021600001206867E81DF9300700806803F025F951
:102170000021B9602079022812D1200060308178D6
:102180004078090201432000009A633005F03EFECA
:1021900070692100FFF7B7FF002811D10020F8BDBA
:1021A00020006030817840780A02024321000098C4
:1021B000633152F0F8EAA0798006800FC03568825A
:1021C0002000F8BDF3B581B00C00019806F001F8CD
:1021D00005001ED00121F82001530026F4200651ED
:1021E0006879C00622D5E01DF9300700806803F049
:1021F000E4F822002100AC3150320C002800BE600F
:1022000005F018FE019829004069FFF77CFF0028BF
:1022100001D10020FEBD280060308178407809029D
:10222000014328002200633005F0F0FD2800FEBDC8
:1022300003210902401810B58069543006F080F877
:1022400010BD7CB50C001500069900910321079A7A
:1022500009024018019280692A003530210005F0FA
:1022600037FB7CBDFFB585B00E001D0001894469B8
:1022700008180390200004A9FFF736FE070002D1DA
:10228000012009B0F0BD0320000200962618B269B3
:102290000399130004982C33263205F033FE04987A
:1022A000817C012910D0002200920192B2690100C4
:1022B00013002C33263271312000FFF7C2FF04993E
:1022C0006031C873000A0874079904982B00012232
:1022D00005F041FD01003800FFF7B4FE0020D0E713
:1022E00003221202801810B58069353005F025FCF4
:1022F00010BD0000D80D00040C0D0004647B050027
:102300000404000010B504008EB0684605F091FC8E
:10231000200069461EF007FF0EB0E9E770B5050022
:10232000032000022C18A06928220100FF31293166
:10233000D83052F060EA01212800FFF7D1FFA369ED
:102340000100D83301222800FFF7DCFF70BD10B573
:1023500044692000FFF7E2FF032000022018816992
:102360000122C0310A618069C0304069002803D071
:10237000817AFD22114081720020B9E770B50021F9
:1023800045692800FFF7ACFF032109026C18A36917
:102390000100FF335B1C00222800FFF7B3FFA06998
:1023A0000121C0308160A069C030C268002A03D119
:1023B000C160280052F022EA002070BDF7B584B059
:1023C00005000E004769008903A9401902903800F2
:1023D000FFF78AFD040002D1012007B0F0BD032001
:1023E00000220002381800928269029913000398B3
:1023F0002C33263205F086FD31000398012240314E
:10240000002305F0A8FC0700706F00280BD0607B4C
:102410000121084360730698002801D0FB4800E0C2
:10242000FB48A06109E00698002803D0280000F0CE
:10243000E5FA02E02800FFF78AFF39002000FFF7E5
:1024400001FE0020C9E7FEB50E00018945690F189D
:10245000280001A9FFF748FD040001D10120FEBDBD
:1024600003200022000228180092826901981300BC
:102470002C332632390005F045FD31000198012248
:102480004031002305F067FC617B01224747A0F43F
:1024900001000000DC23000000040000CDBBFE1D95
:1024A00011436173E049A16101002000FFF7D4FDF1
:1024B0000020FEBDF7B586B003210902069800266C
:1024C00040694518AC6906985434210005F08BFE2C
:1024D000070016D0A8693A3005F0BCF9002829D0C9
:1024E000A8693A3005F0CAF90028A86904D04179F2
:1024F000801D17F0B5FB02E0263004F09CFE0600BC
:1025000001D10020C7E6A8693A3005F091FD02002C
:1025100021002000D431503002AB07C322004032EA
:10252000B43901920091079A08992300300005F010
:1025300002FE0126220021000698403220310023AD
:10254000FFF79AFE002801D0002608E0012E06D1F0
:1025500039000931200005F046FB0020A06730005B
:1025600099E670B5050040690321090240188669A3
:10257000280054363100FFF72FFE040001D100205F
:1025800070BD20790122022800D0002231002800ED
:10259000FFF71EFF002801D0200070BD2100093187
:1025A000300005F020FBEAE770B505004069032123
:1025B000090240188669280054363100FFF7CBFD28
:1025C00004000AD031002800FFF747FF002804D19B
:1025D00021000931300005F006FB002070BDF8B580
:1025E00005000E00008917004019817900240907B1
:1025F00016D54079C00709D02800FFF7B2FFF8BD13
:10260000012002F08FFC641C2406240E3A003100E5
:102610002800FFF74FFF0028F1D1072CF0D3F8BDB9
:102620002800FFF7C1FFF8BDFEB50C000600086FDB
:102630001700401C06D1E06E401C03D1200005F0BD
:10264000EBFDFEBDFDF7CAFE050002E00021FDF72F
:1026500045FE764852F0E0E80028F7D12800FDF763
:10266000C2FE300001A9FFF749FC0500E9D00320B4
:10267000000236180094B269019813002C332632F8
:10268000390005F093FCB0693A3005F0D1FC020046
:10269000B0692030417E807D0907CB0F8006C10FD5
:1026A000019805F08CFDE06E401C0128E06602D127
:1026B000206F401C20672100019801224031002337
:1026C00005F053FB01002800FFF7C6FCFEBDF3B583
:1026D00081B00600032000023518A8690400FF300D
:1026E0005530070000685434002820D0FC20005DDD
:1026F00000901AF075FF029A21003000FFF794FF56
:102700000098002814D0012811D1A869484A203027
:10271000017D0823491C01750098210005F0F0FD9A
:10272000444A4549200008237E6105F0D5FDFEBDE1
:102730003F4A00982100082305F0E2FDA8692030F7
:10274000C17C491CC174FEBD70B50E00110003228E
:1027500012028418A569FF22543515325051A06920
:1027600006222C3052F028E8A069062226303100DB
:1027700052F022E8314A32492800082305F090FD42
:1027800070BD0321090240188069002803D0203061
:10279000407DC007C00F7047FFB581B0050016002F
:1027A0000A9FFFF7EEFF002812D02800FFF74AFD2E
:1027B000032000022C18A0690299801D320051F0FC
:1027C000FCEFA0693A00467104992800FFF7BCFFAE
:1027D00005B0F0BD0321090240188069FF30413087
:1027E00080690006000E704703210902401808B5F1
:1027F0008069C08E009008BD020010B5FFF7C1FFD0
:1028000000280BD0032000021018816920314A7D76
:10281000520852004A758069FFF7B6FB72E5000066
:102820004D2900009F220000CD220000E84A00044C
:1028300061810000409C00008D810000809698001E
:10284000B58100000321090240188069012220306F
:10285000417D11434175704770B5060086B0140084
:102860000D000AA807C8002901D1059105A9009308
:1028700001AB07C303200002301880692300010068
:10288000FF31953135302A0004F0E3FE06B070BD0B
:10289000F0B50600032000023418A069543941D273
:1028A00001000000D8270000000400009E612D7187
:1028B0000F0041791500801D8FB017F0DBF900285B
:1028C00010D001002B003A0001A805F012F93000E9
:1028D00001A91EF03CFC3000FFF7BEFCA0690121FD
:1028E000C030C1600FB0F0BD70B50500032000021C
:1028F0002C18A0692030417DC90712D0817DC906FE
:102900000FD5007E00220007C10F2800FFF7CAFF85
:10291000A06901222030007E0007C10F2800FFF7C8
:10292000C1FF70BD0FB503210902401881696B46D4
:10293000FF319A8881318A8281691A7AFF31813127
:102940008A758069197BFF308130C1750FBD30B544
:102950000324240200198469FF348134257D0D701D
:10296000647D4C708169FF318131897D117080698E
:10297000FF308130C07D187030BD30B50324240293
:10298000001984692034A57D0D70E47D4C70816947
:102990002031097E117080692030407E187030BD72
:1029A0000321090210B54418A06900280BD0FF309C
:1029B0004130C069002806D002F013FDA069002153
:1029C000FF304130C161A7E4EAE703210902401862
:1029D0008069FF306D30704703000A0000B5FFF7D3
:1029E000DAFEFD21002814D00320000218188369A4
:1029F000C0335A6180690300C033002A08D02030F8
:102A0000407DC00701D0186909E0907A08409072B3
:102A100000BD002AFCD0187B4307F6D5C00700286C
:102A2000F3D100BD10B50400FFF7A5FC2000FFF7AF
:102A3000B9FC002070E470B50025038944691B18B7
:102A40005E78002E0BD0032E14D1637A022B02D1B4
:102A500020F07BF801E0FFF7CCFD01250AE0607A69
:102A6000032801D0012805D11879012802D10800D6
:102A70000FF054FD280070BD10B517F01DF90020AF
:102A800010BD0000F94810B50068020080300168F0
:102A900003680901C90EDB00DB0F1B021943F44B6D
:102AA0009980016801231B071943016001681F23F6
:102AB000DB0599430F23DB05C9180160ED4908695F
:102AC000ED4B800502D50869984308610868012428
:102AD000E40720430860886820438860D069240C9C
:102AE000A043D06108691843086110BDDF4810B5E4
:102AF0000068020080300368012109078B43DC492C
:102B000089880C0AE407E4082343036003681F2450
:102B1000E405C906A34309090B430360D5490869C5
:102B20008B0D98430861D369080C0343D36188680F
:102B3000400040088860086840004008086010BDF8
:102B4000F8B50027CA4D3C00696928693E00794004
:102B50007840084303D002F015FB06000C0024F077
:102B60002FFC51F04AED24F038FC6969286979405E
:102B7000084309D002F006FB2A69801B6B69A1415A
:102B80008018594169612861F8BDF8B5040001F069
:102B9000C3FD002843D001F0B7FDB84901208005EE
:102BA0008860C01151F046EE01F035FE01F078FE6C
:102BB000B04D403DE868EE0BB043E860AC480078AB
:102BC000C00721D0AE4F062C0FD0AE494868012275
:102BD00010434860802001F0E2FDF00151F02AEE40
:102BE0000320B874642023F0F9FB0120C00780782B
:102BF00006210840A04201D151F0FEEC01F076FD23
:102C0000002803D1B87401E051F0F6ECE8683043D5
:102C1000E86001F008FE01F04CFE01F06DFDF8BD2A
:102C2000F0B5002425002600270085B0FDF7E0FB65
:102C3000039000F081FD00F038FF8D4808300068F7
:102C4000810702D5C10700D00124010702D5410741
:102C500000D50125810602D5C10600D50126010651
:102C600002D5400600D501270120C0078078062143
:102C7000084002907E480178C90724D0029949078C
:102C800001D40124250002998078022211400143D9
:102C900015D1002E19D100227B480092006808222D
:102CA000012101AB02F0A8F9012200923A8672E3F9
:102CB00001000000D42B0000000400006A0E58C57B
:102CC00000221100100013000BF0B5FC012821D1E7
:102CD00005E07348006800281CD1002E1AD0002C93
:102CE00018D0002D16D0002F14D0694DAC68E8170D
:102CF000E86024F03DFB01007D20C001814201D845
:102D000024F036FB042123F058FB0298FFF747FF1D
:102D1000AC600DE024F02CFB01007D20C00181425D
:102D200001D824F025FB042123F047FBFFF712FF15
:102D30000398FDF76CFB0421002023F03EFB05B057
:102D4000F0BD10B500F053FD00F027FFFFF772FF54
:102D500010BD10B5FDF756FB040021F0DBF821F0A3
:102D6000E0F82000FDF753FB10BD464A0100083291
:102D700012680020914300D10120704770B5040013
:102D8000FDF740FB05003F48083001682143016022
:102D9000E00601D4A0062DD5C8062BD5880627D578
:102DA00001F0AAFD38498039C8683A4A383A904358
:102DB000C86035488030416B3A4A11404163314C1C
:102DC000607800280FD0D007807840084000400786
:102DD00009D40120FFF7C9FF002804D00420FFF721
:102DE000C4FF002801D123F04BFD0020607001E0FA
:102DF00001F082FD2800FDF70AFB70BD10B50BF055
:102E000097FE002801D1284810BD284810BD10B5F4
:102E100023F064FC26494000085A264B1A495843BF
:102E2000C03149680B071B0F51F012ED080507066A
:102E30000609090B0B06400810BD800810BDC0082C
:102E400010BD000910BD10B5FFF7E1FF1A49884217
:102E500001D11A4810BD1A49884201D1194810BD44
:102E6000194A1A49904248D0194A904201D119484A
:102E700010BD194A904231D11648D23810BD000019
:102E800028650500806405008020008000020000A5
:102E90000028008080000080C0240080D0710500E0
:102EA000E06905007FFFDFFF3F3D00007F841E00DB
:102EB000525B0500A0860100001BB70054150000FE
:102EC000405DC600B013000000F82401540D00005E
:102ED00000366E01AA0A000080BA8C01414A904275
:102EE00001D1414810BD414A904201D1404810BD36
:102EF000404A904201D1404810BD080010BD70B555
:102F00000400FDF77FFA05003C480168A143016019
:102F1000E00601D4A00611D5C80601D588060DD457
:102F20003749C868374A1043C86001F0FDFC36498C
:102F3000486B364A1043486323F0BCFC2800FDF779
:102F400066FA70BDF8B52D4C083C02F025F9A2696F
:102F5000E369851A99410E00616900912069642234
:102F6000070051F07AEC33002A0051F07AEC009916
:102F700006000025380069406840084309D1012057
:102F80006561206102F008F96A1E80185141E16113
:102F9000A0613000F8BD1948083800210161416185
:102FA0008161C161704710B501F0FFFB10BD70B5C4
:102FB000040001F0FAFB041B23F096FD0500144900
:102FC0000026200051F050EC33002A0051F048EC6C
:102FD00070BDC00005D5094828304068002800D0E1
:102FE0000047704700F04902AA0600000075190367
:102FF000EB040000007C9200AA1A0000886405001F
:103000000020008048000080002100808000200017
:1030100040420F0010B504003020FFF770FF01F0B0
:1030200096FCE00602D51AF077FB10BD1AF016FBED
:1030300010BD10B501F064FB002804D0012000F0A1
:1030400095FC00F0B1FC0020FFF7E4FF10BD7047D5
:10305000022910B505D0032903D0042901D0052980
:1030600003D1B94BFF21491C9960042A05D0052AD8
:1030700003D0062A01D0072A07D1002805D1002154
:103080000A2208000B003DF04CFB10BD70470428DD
:1030900003D2AE498000085C7047FF20704710B52E
:1030A0000C000020FFF7F3FFA04201D100F068FA06
:1030B0000120FFF7ECFFA04201D100F0692B1B18A3
:1030C00001000000D02F00000004000039D48BA9BB
:1030D00080FC0220FFF7E5FFA04201D1FFF7B3FF1C
:1030E00010BD10B50C000020FFF7DBFFA04201D19E
:1030F00000F06BFA0120FFF7D4FFA04201D100F0ED
:103100006DFC0220FFF7CDFFA04201D1FFF7A9FF20
:1031100010BD042910B507D004DC022904D003290E
:1031200006D101E0052903D100F00DFA002800D0F6
:10313000012010BD022910B505D0032903D00429B0
:1031400001D0052901D100F0AFF910BD022910B559
:1031500005D0032903D0042901D0052901D100F0AD
:103160005AF910BDFF280BD07D4A00218B00D35C9B
:10317000834202D10806000E7047491C0429F5D38A
:10318000FF207047FF280CD0754A00218B009B1848
:103190005B78834202D18800105C7047491C042987
:1031A000F4D3FF207047042804D26D4980004018F2
:1031B00040787047FF207047FF280CD0684A0021F4
:1031C0008B00D35C834203D188008018407870471D
:1031D000491C0429F4D3FF207047FF280CD0604A13
:1031E00000218B00D35C834203D188008018807853
:1031F0007047491C0429F4D3FF207047F7B582B00B
:1032000007000E000C2901D2092F02D3002005B0BF
:10321000F0BD00255249A8000A5CBA421ED14418EC
:10322000A278B2421AD02806000E3900019020F090
:1032300037FF002812D0A670E07804994007400FAD
:10324000C9000843E07001983200390020F02AFFDD
:10325000002808D0E07802210843E0706D1C042D9E
:10326000D8D30120D3E73E48AA00FF21101881706F
:10327000E0784007400FE070C8E7F0B506000800AE
:10328000374F002204219300FC5CB44209D1DD19C0
:10329000EC7823000B43002802D02300FB242340BA
:1032A000EB70521C042AEED3F0BD2D4A00218B0096
:1032B000D35C834206D188008018C0784007C017CD
:1032C000401C7047491C0429F1D30020704770B599
:1032D00005000C00100001F07CFA200051F07EEA9D
:1032E0002800FFF74FFF022805D0032803D0042849
:1032F00001D0052803D1200000F096F870BD200011
:10330000FFF771FE70BD10B50400C00005D50122A5
:10331000120311040C20FFF7DAFF200105D501226A
:10332000D20211040B20FFF7D2FF600105D5012264
:10333000920211040A20FFF7CAFF10BD0120C0034A
:1033400010B501F046FA0120C00751F048EA0549DE
:1033500008698A0D9043086110BD000000280080B4
:10336000A064050080200080F3B581B00198FFF7CC
:10337000F9FE04000198FFF71FFF05000198FFF711
:103380002CFF012706003F05022C02D1042D22D17B
:1033900009E0002C01D0012C1DD12B1F51F062EA55
:1033A0000403080E141B102001F013FA380010E07B
:1033B000202001F00EFA012040050AE0402001F033
:1033C00008FA0120800504E0802001F002FA0120C3
:1033D000C00551F058EA0298002816D10198FFF76D
:1033E00064FF002811D0331F51F03CEA060F0F0F85
:1033F0000F07040F0021102005E06349A0004018CA
:10340000C0780021C00824F04FFAFF220199100073
:10341000FFF74FFEFEBD0800002110B5FFF7A4FF27
:103420005A490020887410BD10B50400C00203D5AD
:1034300001210220FFF798FFA00203D501210320FC
:10344000FFF792FF600203D501210420FFF78CFFF4
:10345000200203D501210520FFF786FF0120000788
:10346000844205D04010844202D0401084421AD1D8
:10347000FF208206A11808D0891804D0C206891836
:1034800004D10C2002E00B2000E00A20FFF77AFEB6
:10349000022805D0032803D0042801D0052802D132
:1034A0000121FFF761FF10BDF8B504000E00170001
:1034B0000800FFF792FE0500002C01D0012C2AD154
:1034C0003B1F51F0D0E904030C151E281777411E4D
:1034D00001000000CC330000000400008611AE1A89
:1034E000102001F07AF9102001F083F90120000585
:1034F00019E0202001F071F9202001F07AF9012073
:10350000400510E0402001F068F9402001F071F919
:103510000120800507E0802001F05FF9802001F0A4
:1035200068F90120C00551F0A4E92B1F51F0A4E96E
:10353000060F0F0F0F07040F0121102005E0174998
:10354000A0004018C0780121C00824F0B7F9FF227C
:1035500031001000FFF7CFFDF8BD01000020022967
:1035600010B518D0002901D0012913D10D4C00222B
:103570002068462151F00CE900280AD12068002279
:10358000082151F006E9002803D151F08AE900280A
:1035900001D1002010BD012010BD0000A064050075
:1035A00080000080086A0500022010B5FFF7BBFC10
:1035B00001F0BAF8002804D0012000F0EBF900F087
:1035C00007FA23F0CAFC01E023F0B2FD0028FBD08B
:1035D0000021082208000B003DF0B7F810BD0220C2
:1035E00010B5FFF7DFFB10BD70B50020FFF763FDDE
:1035F00004000020FFF7E1FD05000120FFF793FC28
:10360000994948680222104348609849100588602B
:1036100001F017F9082051F0ECE82A002100002001
:10362000FFF72AFD70BD70B5FCF700FF050090485C
:103630000068C00710D00020FFF7D6FF7D20C00033
:1036400022F0EAFE002051F030E9040002E0002000
:1036500051F02AE9A042FAD02800FCF7ECFE70BD38
:10366000002010B5FFF727FD04000020FFF7A5FD9F
:10367000020021000020FFF773FD10BD10B5FCF71C
:10368000D5FE04007A480068800701D5FFF7E8FFFF
:103690002000FCF7D0FE10BD002010B5FFF70BFD99
:1036A00004000020FFF789FD020021000020FFF741
:1036B0003AFD002800D0012010BD38B501F034F8E3
:1036C000002826D1401E009069486A4C0068C00757
:1036D00011D06068401C18D0A068FFF77CFC6649D8
:1036E00051F0E6E800906168884201D3002000E0D4
:1036F000081A009009E068463CF079FE00280CD0DA
:1037000000986060FFF763FCA06021780098884211
:1037100003D3FFF7C1FF002801D1002038BD0120ED
:1037200038BD534810B50068C00705D0FFF7C5FF86
:10373000002801D0012010BD002010BD002010B5D0
:10374000FFF7B9FC04000020FFF737FD020021005D
:103750000020FFF7F9FC10BD10B5FFF79DFF002812
:1037600004D000203DF086F8002801D1002010BDD3
:10377000012010BD3E4810B5006880070DD43F48B9
:103780000078022809D1FFF7CCFF002805D0FFF709
:10379000E3FF002801D0FFF7D1FF10BDF8B50020EE
:1037A000FFF789FC05000020FFF707FD34490600FC
:1037B000096817204883082051F05AE801F039F8C9
:1037C00001F02FF8294801214905C1602D4CC0178F
:1037D000009020680121084320603CF02BFE002867
:1037E0000BD168463CF003FE012806D10098401C2E
:1037F00003D12068400840002060320029000020EA
:10380000FFF758FC1849486802229043486001209D
:10381000FFF7C8FAF8BD70B5154D2868C00722D16A
:10382000FFF74BFF00280BD1124CE068FFF7D3FBEA
:103830001549884204D9FFF7CAFBE06051F03CE823
:103840002868C0070FD1FFF738FF00280BD0FCF71E
:10385000EDFD0400FFF731FF002801D0FFF79EFFC8
:103860002000FCF7E8FD70BD4020008000280080AB
:1038700088640500C8640500E20400005772050072
:1038800054F90004DC64050080841E00F8B5FCF7E0
:10389000CDFDD74D07002868002830D122F066FF03
:1038A00086211F2022F018FF22F056FFD14E3068EB
:1038B000012109070843C9108843306000F089FFDF
:1038C000040000F086FFA042FBD0306809214906C1
:1038D00008433060C849C869082290431F4F14D874
:1038E00001000000C837000000040000D5CB7D7641
:1038F000C861C6494031886A80229043886222F0BC
:103900003FFF0821202022F0FCFE22F02FFF0120A3
:1039100028603800FCF799FDF8BDF8B5FCF790FD7C
:10392000B84D0090286801283AD123F0F3F8002818
:1039300007D122F025FF0821202022F0D7FE22F017
:1039400015FFB2494031886A802210438862AF482F
:10395000C1690826B143C161AB4F386851050843BE
:10396000C9108843386000F03EFF040000F03BFFC0
:10397000A042FBD00A2022F059FDA449C869304377
:10398000C8613868092149068843386022F0F8FE8A
:1039900004211F2022F0B5FE22F0E8FE002028605E
:1039A0000098FCF752FDF8BD10B504000120FFF7A8
:1039B0008CFB002C05D196490968CA0711D0C906AD
:1039C0000FD506280DD00120C00300F010FF012004
:1039D000C00750F058EF8D49403108698A0D1043F7
:1039E000086110BD012010B5FFF76FFB062803D05A
:1039F00000F0A4FE0028FBD110BD082010B5FFF791
:103A00009CFA10BD082010B5FFF7D6F910BD38B5E7
:103A1000002000900120FFF758FB04000120FFF771
:103A2000D6FB05000420FFF788FAFFF776FF00F0C9
:103A300056FF202050F0E6EE00F025FF684650F0DB
:103A40004AEF0121734AC906002800D0009891600E
:103A50002A0021000120FFF719FB38BD10B5FCF743
:103A6000EFFC04006A480068400702D50020FFF719
:103A7000CEFF2000FCF7E9FC10BD012010B5FFF7D8
:103A800024FB04000120FFF7A2FB0200210001201B
:103A9000FFF753FB002800D0012010BD08B5684691
:103AA00050F01CEF002803D0FFF7E7FF002801D1FA
:103AB000002008BD012008BD554810B5006840072A
:103AC00005D5FFF7EBFF002801D0012010BD002035
:103AD00010BD70B50120FFF7F8FA04000120FFF7D0
:103AE00076FB05000020FFF7F0FAA04204D02A0080
:103AF00021000120FFF732FB70BD454810B500687A
:103B0000000709D4FFF7D8FF002805D0FFF7B5FF5D
:103B1000002801D0FFF7DDFF10BD10B500F0C5FE95
:103B200039484030816A3C4A114081623B4908690A
:103B30000322D202104308613448016A490849004F
:103B4000016231480168364A1140016010BD38B544
:103B5000002000900120FFF7B8FA04000120FFF7D1
:103B600036FB0500202050F08EEE00F0AFFE294914
:103B70000120C006C860684650F0ACEE002808D1AD
:103B8000FFF7CBFF50F0AEEE002808D0FFF788FE1D
:103B900005E00098002800D0012000F045F82A0038
:103BA00021000120FFF790FA0420FFF705F900F04B
:103BB000C5FD00280ED01348406800280AD01948D7
:103BC0000068806B0001000C02D10120FFF7ECFEC1
:103BD000FFF708FF38BD0E4810B5006840070FD446
:103BE000FFF75CFF00280BD0FCF72AFC0400FFF76E
:103BF00055FF002801D0FFF7AAFF2000FCF725FCA5
:103C000010BD0000D86405004021008040200080E5
:103C10008864050000280080FDFF7FCC40220080E2
:103C2000F5FFFFBF2865050070B500F02CFE1A48AF
:103C3000816A1A4A11400722D2051143816216484F
:103C4000C0300169164A1140016122F063FF154D31
:103C5000154E002802D1286A30432862134C207880
:103C6000FF2809D122F08CFD122022F034FD04211E
:103C70000840207022F07AFD2078002802D1286ABE
:103C800030432862044940390868094A1040094A0B
:103C90008018086070BD000080210080FDFFFFCF0C
:103CA000FEC7FFFF4020008001000100E064050026
:103CB000F0FFFF9F0E000040FF4840687047FF493B
:103CC000C869401CC8617047FC49886AC96A704766
:103CD00010B528F0AEFC002809D0FCF7B1FBF64A7D
:103CE000117C002901D0491E1174FCF776A0322FF7
:103CF00001000000C43B00000004000021A408C231
:103D0000AEFB10BD70B502201AF0F9FD07E02000EF
:103D100036F0E5FFE27AA17A200019F084FF040072
:103D2000F5D11AF0ECFD002801D036F0D8FF00F0F4
:103D30001BFFE8490869022290430861E34C002513
:103D4000A561E5482574606128F096FC656170BD49
:103D5000F3B5040083B050F0D4ED0090DB48DB4DA8
:103D60002038007E0E00603D0027002844D1D8494D
:103D70002A69886AC96A6B69121A8B411ED2009A35
:103D800028696969801AD54AB1418518E069794185
:103D9000010604D5A581E58124F0A0F906E080069E
:103DA00005D5A581E58124F099F940002D1AE06937
:103DB000012189020843E061606885800498C54953
:103DC000800040394018006B3A2780020190BF48BC
:103DD000E75F4069009AFB17C11780187141C01B4B
:103DE000019A99410023801A99416161206160889C
:103DF0000121C9030843608005B0F0BDF8B5040097
:103E00000D0050F07EEDB34BAA00403BD218136B6F
:103E10006268002692781507AD0F022D0ED11709A2
:103E2000042F0BD1A94A9D02603A92690B00978832
:103E3000310038185941401BB1410FE0012D14D118
:103E400012090E2A11D19B02020018000D00101A4F
:103E50002B00B34164221900801871416161206117
:103E600060880121C90308436080F8BDF3B50C00E8
:103E700083B00027C869C00403D5208D81054D0E8D
:103E80001BE0E06A0026350001900EE00199A800D1
:103E90004118042202A850F0CCEC6B46D87A6D1C75
:103EA0000007000F86190E2D02D26078B042EDD2C5
:103EB0006B4618898005450E187AC00700D0012787
:103EC000E069290002040398120C2CF0A7F90600FF
:103ED000012F02D10E352D062D0E606801230288B8
:103EE000E0690104090C280050F00EED7C498019AE
:103EF000096B081860877FE7F8B502201AF0FFFC0D
:103F00000500FF21774800222D3150F08AEC060091
:103F10007ED00221B020317334183081A078F32292
:103F200080088000104008300007000F4030A0706B
:103F3000E0784008400008431040CF210840BF21EE
:103F40000840E07031200001291806220D00A01D54
:103F500050F06EEC2000062229000C3050F090EC5E
:103F6000200006222900123050F062EC00211C20B3
:103F70002180351830817421280050F072EC534AAA
:103F80002F00162060372C66603A78735088A8702E
:103F900010004030017E002904D0C188A1808089B2
:103FA000A87002E09069C088A080A868FF21491C21
:103FB0000843A86002201AF0A2FC70614A48007E03
:103FC000800607D4A878002804D0A86801218907B2
:103FD0000843A86007203873A868052189020843B0
:103FE000A86020F020FA0124002804D0012000F06D
:103FF0001EFB3748046030002CF0ECFD35480169A9
:10400000022211430161314801001C31846100E04A
:1040100004E04868401C48600120F8BD2B491C3171
:104020004869401C48610020F8BD294910B50A695B
:10403000002482421ED100200861244880690028A3
:1040400003D1FFF759FF04000AE0284801694069DD
:10405000814205D0264807220068012100F0FAFFBE
:104060001A492039087E002804D0002C03D12D20C5
:1040700014F0E2FC10BD0128FCD10220087610BD2E
:1040800010B5134C6169814204D1302014F0D4FC86
:104090000020606110BDF8B5002506000B48856161
:1040A00050F02EEC0A4CE162A06220F0BCF92168CD
:1040B000084303D0002000F0BAFA2560002E04D097
:1040C00002481C300168491C016013E0F87E0500BD
:1040D000E8640500C0A20080FFFFFF7FA60E00007D
:1040E00040A60080480D00041067000400A0008076
:1040F000806C0500FF4D287E022811D132ECB8FFFC
:1041000001000000C03F000000040000727EDBAE32
:10411000FE49C86802221043C860606901F09DF939
:1041200008220092EA88FA48FA4B002101F043F98C
:1041300003202876F8BDF8B502201AF0EAFB050046
:1041400050F0E8EBF34C07000E00143C803508E01B
:10415000688BA26B8002E36BC11780185941E16341
:10416000A063A26BE36BD21BB341F1D3E16BA06BF5
:10417000F8BDFEB550F0CEEB0C000090FCF774F9E2
:10418000E14DE449203501901439287C096A08433F
:1041900025D1DD480026017E0700403F002904D0DC
:1041A00080887B6D3A6D31000AE028F002FA002821
:1041B00001D168690AE0B8697B6940883A693100D1
:1041C0008018009A5941801AA1416861002806DDD3
:1041D0002CF03BFF002802D0287C401C287401985A
:1041E000FCF747F9FEBDF8B5012000F0A1FC50F046
:1041F00092EBC54AC74D403A5165143D1065286998
:1042000001F02BF9C04CC44F207E002868D050F03C
:1042100082EB2A6B6B6B801AC04A994100263300EF
:10422000121A8B4101D2E6612FE0E06901282CD1FE
:1042300020F03EF9BA4E032816D820F024F90028C1
:1042400012D1E088FF30F5300004000CB842E08065
:1042500000D9E780A088FF38F5380004000CB04290
:10426000A0803DD2A6803BE0E08864380004000CCA
:10427000B042E08000D2E680A088AA496430000401
:10428000000C8842A0802BD915E020F0D6F8002839
:1042900013D050F040EB07000E00FFF74CFFC01B9F
:1042A000B1416A68A9685318834203D94A08801A41
:1042B000E08000E0E280A18012E0E869002801D0FF
:1042C000EE6109E0984982008A58002A04D1401C16
:1042D0000728F8D3E78001E06089E0802089A0808A
:1042E0008C4B08220092A288904800211B1F01F0ED
:1042F00062F801202076A8698D4E022701280DD191
:10430000FCF7B2F80021A961716930229143716113
:10431000884A516AB9435162FCF7ABF87A49A088E0
:10432000203148613069B8433061FFF722FFF8BDA2
:10433000F8B50400744E20367068002836D0FCF7BB
:1043400093F8714D0700287E002C1ED000282AD13A
:104350002868002827D07068002824D028F029F980
:10436000002820D120F05DF8002803D120F065F866
:10437000002818D06549C868012252059043C860DA
:1043800050F0D0EAFFF72FFF0DE000280BD0614C72
:10439000143C606901F061F8206901F05EF8FFF7F4
:1043A000BBFC002028763800FCF763F8F8BD5949BB
:1043B0001439CA6882420DD10020C860012088618A
:1043C0005B4841693022114341615A49486A0222DF
:1043D000104348627047F8B55748446B002550F0C9
:1043E0009AEA00194B4C6941143CE163A06328F040
:1043F000E0F8454E403E00280FD0B06800280CD0B1
:10440000E06801F02AF808220092192223004B48A4
:10441000520100210C3300F0CEFF3B4F387E0028C4
:1044200010D003280FD120F008F8002804D0374915
:10443000C86802229043C860606901F00EF830201D
:1044400014F004FBF8BD0128FCD150F064EA326D91
:10445000736D821A9941B8880B002900801A99411E
:10446000374D00040014A842ECDA206900F0F5FF93
:10447000284B082200922D482A0000211B1F00F023
:104480009AFFF8BDF8B5204C224D2034143D2D285C
:104490007ED00CDC212809D00126B6022A285AD069
:1044A0002B280DD02C2801D100F0D6F8F8BD2E28ED
:1044B0004BD02F284BD03028F8D1FFF794FEF8BD11
:1044C00060680028FBD0FBF7CFFF040028F071F8EC
:1044D000002817D00020FFF72BFF50F024EA0B49EB
:1044E000C868012252051043C86012498039886AA1
:1044F000FF22920410438862300000F003F930007C
:1045000000F0F3F820001DE0D87E0500EEE4E1297C
:1045100001000000BC43000000040000708703B8E5
:1045200000A70080453F0000FC640500D85900004A
:1045300020A10700B80B000050460000F47802C02C
:10454000EF3E0000C0A20080C0A8008000A600804E
:104550005F42000034080000FBF795FFF8BD012022
:1045600000E00020FFF7EEFEF8BD5D4FF888002860
:1045700004D138002430B861B88803E058491C31B0
:10458000401EB961F8800120B860300000F0B7F833
:1045900050F0CAE97961386105F0EDFF286900F053
:1045A00066FF00E025E008220092B8694E4B0288C1
:1045B0004C48002100F009FFA8694C4E01280ED19B
:1045C000FBF75CFF0021A9617169302291437161A1
:1045D00047494A6A02239A434A62FBF754FFB86983
:1045E000408860613069022188433061FFF7CBFD6C
:1045F000F8BDFF26F5366661FFF7C5FD286900F0B6
:1046000036FF082200923748374B3200002100F075
:10461000DCFEF8BD10B5324C6034A06800280DD027
:10462000E06800280AD028F028F8012806D1606048
:104630002E2014F015FA2B2014F012FA10BD2C20A5
:1046400010B514F00DFA2F2014F00AFA24490020B6
:104650006031486010BD0322264912050028086910
:1046600001D0104300E09043086170471C4870B5CA
:1046700060304068002831D0FBF700FF1A4C06007C
:10468000103C206900F0F3FE0025256105F08BFF4A
:10469000E06800F0ECFE1548E56041693022914386
:1046A00041611348416A02229143416210488038B7
:1046B000816AFF22920491438162440D200000F040
:1046C0002BF8200000F023F805488560FFF72EFB4B
:1046D0003000FBF7D8FE0120FFF734FE70BD00006C
:1046E000987E0500EF3E0000F8640500C0A200803F
:1046F000C0A8008000A700800948C0697047084929
:104700000A6902430A618A6902438A617047044A5E
:1047100011698143116170470149C043C861704705
:104720008021008008490848403942685204FCD47E
:104730004A68002AF9D1704710B523F069F810BD16
:1047400010B522F0D1FF10BD40E80080DC480068C1
:1047500000680004000C7047D948006841680122D5
:104760001205114341607047D54800684168012235
:104770001205914341607047D1480068806BC005C5
:10478000C00F7047CE48006841680122520491432F
:1047900041607047CA4800684168012252041143D1
:1047A00041607047C6480068816B0901090C01D05F
:1047B00000207047816B002904DA816B0906090F1C
:1047C000FBD100E0806B01207047BD480068816B21
:1047D0000906090FFBD17047B94909688A69120CAB
:1047E000120402438A617047B5480068816BC907AB
:1047F000FCD041680122D203914341607047B04927
:1048000009680A6B086348680122D20310434860B4
:104810007047AB480068406A7047A9480068C06AA2
:104820007047A7480068406B7047A5490968CA6986
:104830008243CA617047A2490968CA690243CA61D2
:1048400070479F4909680A6A02430A6270479C4997
:1048500009680A6A82430A62704799480068806B57
:104860008007C00F704796480068806B0007C00F34
:10487000704793480068C0304168372291434160D7
:1048800070478F480068C0304168082291434160FA
:1048900070478B480068C03041680822114341606E
:1048A000704787480068C0300168012211430160E9
:1048B000704783480068C0300168490849000160BA
:1048C00070477F48006841680122920411434160AB
:1048D0008168121191438160FF30401C4168490892
:1048E00049004160704776480068C11DF9314A6847
:1048F00001231A434A6041689A04914341608168E8
:1049000012111143816070476D480068FF30401CF0
:10491000416802229143416070476948702048B560
:1049200001000000B847000000040000235DD0D45F
:104930000068FF30401C416802221143416070470B
:1049400064480068FF30401C016801221143016087
:10495000704760480068FF30401C01684908490002
:10496000016070475B480068803041684908490031
:104970004160704757480068803041680122114308
:104980004160704770B5534D28688030016801223E
:10499000114301600168504C490205D50168A143EB
:1049A00001600A204FF0A2EE2868803001682143A0
:1049B000016070BD47480068010080310A685208F4
:1049C00052000A60816BC900FCD4704741480068FE
:1049D00080300068C007C00F70473E4800688030D4
:1049E00001683D4A9143016070473A480068803051
:1049F000C068704730B5374C21680A6901252D041D
:104A00002A430A610A0080321569106150695361B6
:104A10009069F0209061886810221043886088684F
:104A20002023984388602068416B426B8A42FCD007
:104A3000FFF7DBFF0028F6D1206881681943816009
:104A40004168012252031143416030BD2148006892
:104A50008030006970471F48006881682022114338
:104A6000816070471B480068816820229143816003
:104A700070471849096880310A681F23DB05C006A2
:104A80009A43000902430A60086801221207104392
:104A9000086070470F48006880680003C00F7047C7
:104AA0000C48006881680122D2041143816070477C
:104AB0000848006881680122D204914381607047F0
:104AC0000448006880300168FF22521C11430160D5
:104AD0007047000028650500000040003F488068DE
:104AE000002800D00120704710B504F04CFA0028CF
:104AF0000ED0FFF7F3FF00280AD03948C168022220
:104B00009143C16035484068C00FC00727F030FFAF
:104B100010BD10B5314CA16881420ED1FFF7E4FF02
:104B200060684004400CFFF7FCFD60684004400CE6
:104B3000FFF7FCFD0020A060606010BD08B5274BAA
:104B40005A6802435A60082200920A002548002150
:104B5000083300F044FC08BD70B5050000240420B3
:104B6000FFF7E4FD1E488030C06A400013D422F0F5
:104B700004F800280FD00420FFF7CBFD002D01D151
:104B80000124E40720000421084314490968FFF7C1
:104B9000D5FF002070BD1249C86802229043C8604A
:104BA000012070BD0E48C16802221143C1607047E8
:104BB0000B48C068022108407047042010B5FFF779
:104BC000B0FD0420FFF7B2FD044CA068002804D01B
:104BD00000F057FC0020A060606010BD2C6505004F
:104BE00000A700809B490000CA4908220028C86825
:104BF00001D0104300E09043C8607047C6480021D0
:104C00004160FF2101707047F0B503252D03C148B5
:104C1000C24CC030C20D9302870C0029BD4E016A00
:104C20000AD011430162016A99430162606B284313
:104C300060633068384309E091430162016A1943B7
:104C40000162606BA84360633068B8433060F0BDB8
:104C500038B50500002468464FF00CEE002802D15C
:104C6000002D1AD10BE0002D0BD16B465878C107EF
:104C700013D0400611D598780007000F0BE00124EF
:104C80000BE0012D09D16B465878810705D5C00985
:104C900003D0987800090128F1D0200038BD73B501
:104CA0006B4605005C79600708D59B4E706800284C
:104CB00004D19B482CF0ECFF012070602800FFF726
:104CC000C7FF0106090E2800FFF79EFF600703D407
:104CD0006B461879000900D00120FFF785FF7CBDE5
:104CE00033B56B460028997902D10807000F02E01E
:104CF000012813D108098B4A8649D4438031002802
:104D00000DD0894B894D01280DD0092810D00F28CE
:104D100004D1C817C8600861C86108623CBDCA6098
:104D20000A61CC6102E0CB600A61CD6129E30888A9
:104D300001000000B44B000000040000D732A56061
:104D40000C623CBDCB607F480861CD617E48EEE7D8
:104D5000F0B50028047A4578067947792ED00129E4
:104D60000FD1059901290CD1012A09D1002C00D1BC
:104D700040246540D90700D06640990700D56740B8
:104D80002C00724B1968914200D01A6001782A06F3
:104D900009040A4321020A4363492243C0314A629B
:104DA0008279C37812041B021A4332438A62C279A1
:104DB000807812043B021A430243CA62F0BDF0B588
:104DC0000026050087B06B46187D370034001E753D
:104DD000002D06960ED145205875987D01209875B6
:104DE00018720221587299720421D972187358737B
:104DF000997310E047206B465875987D9020987500
:104E0000092018720A22587211219A72D9721873E5
:104E10005A73997312216B46D97318740599280037
:104E2000FFF747FF05992800FFF764FF0698230066
:104E30000207120F00923A00310002A8FFF788FF24
:104E4000012007B0F0BDFEB5070008F02DFCFFF70C
:104E500009FF002825D1344D6C46E43507CD6B465B
:104E6000324E07C40C3D187999780C3C002F0BD0BA
:104E7000884216D05A7A1B7A9A4212D07170B37057
:104E80006B4698701A720AE088420AD16B46587ACB
:104E9000197A884205D170789870B078187207CC6A
:104EA00007C5FEBDF0B50025070020482E0001789B
:104EB0002C00B94285B035D0077004A84FF0E4EC5F
:104EC000002804D13800FFF77AFF05B0F0BD6B462B
:104ED000187C0007000F012805D8380001A94FF001
:104EE000DCEC002801D10020EFE704993800FFF73F
:104EF000E0FE04993800FFF7FDFE6B46587CC106C2
:104F000001D4800600D501256B46187C23000207DA
:104F1000120F00923200290001A8FFF719FF0120AB
:104F2000FFF791FF0120D0E700A70080386505005A
:104F30000021008000A0008011DD55DD1FDF5FDF54
:104F4000EF2FAF2FF1FDF5FDFEF2FAF27C0C00041D
:104F500038B500240D4D01E08047641CA00028589E
:104F60000028F9D13BF020FE4FF0FEEC08480A493A
:104F700002680092074A0948094B4FF0FAEC0948C9
:104F80000168002901D00020884738BD08C102C04F
:104F9000946A050018520004180D00040C0D00045A
:104FA000009002C040650500FEB50D001600089F88
:104FB0000A9A0999002800D1FEE70468002C00D164
:104FC000FEE702920191320029002000009722F0B2
:104FD00083FAFEBD10B54FF0D0EC0006000E10BDF8
:104FE00010B54FF0CEEC0006000E10BD002810B535
:104FF00001D04FF0CAEC10BD38B514006A464FF02E
:10500000C8EC00982070002038BD10B504004FF0A7
:10501000C4EC2060002010BD10B54FF0C2EC10BDF4
:105020007CB50D001600079A0699002800D1FEE70E
:105030000468002C00D1FEE70192009132002900A3
:10504000200022F027FB002800D165637CBD10B54D
:10505000416B22F036FB10BD7CB50C001500069AA2
:10506000002800D1FEE70068002800D1FEE70021FB
:10507000019200912A00210022F05CFA7CBD10B55B
:1050800022F077FA10BD10B522F07EFA10BD00288C
:1050900010B500D1FEE70068002800D1FEE722F03D
:1050A0007CFA10BD10B522F082FA10BD38B514009C
:1050B000049A0092220022F09FFA38BD002810B511
:1050C00000D1FEE70068002800D1FEE722F0C8FA10
:1050D00010BD10B522F0CEFA112800D1122010BD5B
:1050E00010B522F0CFFA10BD01C08FE21CFF2FE1F6
:1050F00070B5242149484FF0DCEBFBF7D3F90121CF
:10510000464BC90700200A781A54491C401C0A283B
:10511000F9DB434900200A781C18491C401C0A2866
:10512000A272F8DB3E482030017A1975017C59756E
:10513000017D9975017ED975007F394AE2199A94EB
:1051400001000000B04F00000004000084E8760C6D
:1051500018766032110000200C781D18491C401C84
:105160000B282C76F8DB0020D178EE29FCD10178D1
:1051700091703049401C6431CB1D04780C70401C88
:10518000491C9942F9D303214904884203D10120E3
:105190008006AA210CE02849884202D18005BB2163
:1051A00006E02649884202D10020CC2100E0FF2100
:1051B000D170D9E71F486030C078EE2800D1A1E750
:1051C000704770B5FDF71FFE1D48002200680D21D5
:1051D0004FF024EB1B4D6C6804E06068002800D0A1
:1051E00080472468002CF8D1FFF7E4FF2878401CA2
:1051F0000006000E2870FBF7EDF8FDF7FCFDEAE76E
:10520000114810B54FF0C6EB10BD10B50400FBF708
:1052100053F90C4B59680A0000E00968002902D0D4
:10522000A142FAD101E022605C60FBF74AF910BDAF
:10523000908105000001008000A70004003003C039
:10524000086A050044650500307F050070B58020C0
:105250004FF0F4EA10498D69104900264A680C683D
:10526000954200D800E0641C4FF0E8EA6D1C6842EB
:1052700031008019614170BD08480168491C016016
:105280000021C943416070470348806903494A6867
:10529000904200D848607047003000804C6505009F
:1052A000EA48006AEA494968081A7047E74801690C
:1052B000820C91430161E6494968C16001690B2292
:1052C0001203114301617047E0480169820D914367
:1052D0000161E04A4021D1600421C9434162704725
:1052E00070B50400FFF7E2FFC82C00D2C824D849EB
:1052F0004868844200D30400D4480422D243426266
:10530000D44A936840252B43936084600269052347
:105310005B021A430261C8688047200070BD0168C3
:105320004A69026000200861C948006882684A61D1
:1053300081607047002307E082688A4202D3521AD4
:10534000826000E0836040690028F5D1704770B545
:10535000040000200BE04E680D690B682000FFF789
:10536000DEFF002B02D03100280098470120216881
:10537000002902D08A68002AEDD070BD10B50268FD
:1053800002E0100052691430002A03D08B68946840
:10539000A342F6D84A61016010BD10B5AC4C20683C
:1053A0000069002803D02069401C206110BDFFF770
:1053B0008BFFFFF775FF0300FFF778FF2168CA68CE
:1053C0009A4201D960681B1848681900FFF7B2FFBC
:1053D0002068001DFFF7BBFF2068416800290FD03F
:1053E000FFF75EFF21684A6801001000FFF7A2FF87
:1053F000206840688068FFF773FF2168C86010BDAF
:105400000021C16010BDFFB581B000241D00FFF771
:105410005BFF80204FF012EA8D4E0090306800272D
:105420008168002921D00C00496981600168491C0C
:10543000016001D101210160019820600298606043
:1054400030680068206103986761A0600A98207343
:10545000FFF726FF31684A6801001000FFF76AFF76
:1054600030682100001DFFF789FF3068416800297E
:1054700007D00069002804D18868FFF731FF316840
:10548000C860002C07D02069002804D0002D00D06F
:105490002860012403E0002D00D02F600024009834
:1054A0004FF0CCE9200005B0F0BDF8B500250700AD
:1054B00067482E000468241D002F20D080204FF064
:1054C000BEE9030007E00169B94202D101252E00BF
:1054D00001E0040014342068002801D0002DF2D02F
:1054E000002E02D02000FFF71AFF594800684068DC
:1054F000002801D1FFF7E8FE18004FF0A0E93000C6
:10550000F8BD70B580204FF09AE9514C0500216834
:1055100001200861486800280FD0FFF7D5FE4FF042
:1055200022EA2268D1619061FFF7BAFE010020688B
:105530004068FFF7FFFEFFF7B9FE28004FF07EE955
:1055400070BD70B580204FF07AE9414D754123B4AC
:1055500001000000AC530000000400003B2D53BFCD
:10556000060028680169002916D000210161406801
:10557000002811D04FF000EA2C68A269E369801A74
:10558000994101006068FFF7DFFE28684068806885
:10559000FFF7B0FE2968C86030004FF05AE970BDCF
:1055A000F7B582B000250E00FFF7B5FF80204FF061
:1055B00050E901902B480027006844680CE0002E59
:1055C00002D0207B304206D0A5684FF0D6E9029A7F
:1055D0004019794103C26469002C01D0002DEED03E
:1055E00001984FF036E90498002801D1FFF7B3FF86
:1055F000002D06D0FFF75EFE854201D32D1A00E094
:105600000125280059E7F8B5060000273D00802055
:105610004FF01EE90090134801684C6817E0207BAA
:10562000400711D5A068B0420ED80020002DA06020
:1056300006D0606928600B48006841686161446079
:10564000FFF789FF012702E0250064691435002C6B
:1056500001D0002FE3D000984FF0FAE83800F8BDF1
:1056600000300080546505000028008030B500221D
:10567000FD4C256807E018235343C35C002B0BD176
:10568000521C1206120EAA42F5D36268002008E0EE
:105690000301CB5C002B01D0012030BD401C000673
:1056A000000E9042F4D3002030BD18235843401818
:1056B0000169491C01617047F7B515000600EA4F02
:1056C000002417E018206043295C00290FD04119FD
:1056D0004878B0420BD10198091D06224EF0D1FB4B
:1056E000002804D11821614349190861FEBD641CDA
:1056F0002406240E38688442E4D3FEBDF7B51500B5
:105700000E00D94F002411E02001295C01290AD1A3
:1057100040194178B14206D10099C01C06224EF0D2
:10572000B0FB002805D0641C2406240E786884424F
:10573000EAD32000FEBD0300080010B514001900D4
:10574000FFF7DCFFC8494968884203D20021000105
:105750000019C16010BDF7B515000700C24E002446
:1057600012E018206043295C01290AD141194878C8
:10577000B84206D10198091D06224EF082FB00288E
:1057800005D0641C2406240E30688442E9D33068B6
:10579000844202D10020C043FEBD1820604340195E
:1057A0000069FEBD0300080010B514001900FFF7E2
:1057B000A5FFAD494968884203D200010019C068BD
:1057C00010BD0020C04310BDF7B515000600A64867
:1057D000002440681CE02101695C002915D1301DBE
:1057E0004FF076E827017C19607001983100A070B5
:1057F000E01C062214314FF058E80120E855002043
:10580000E06001200003608104E0641C2406240E93
:105810008442E0D3944880688047FEBD18235943F2
:1058200010B58C18904A616912699047002802D01F
:10583000E17823F030FC10BDFFB583B00F008A4D36
:105840000C9EE968039888470D30012181400024AF
:105850002800019100683BE018216143715C002938
:1058600033D1381D4FF034E81821614302918D196E
:10587000687005983900A870281D062214314FF071
:1058800014E80299012070540698E8703800083036
:105890004FF01EE8002802D10920000202E0C300F8
:1058A00018180002686169690198814201D901985C
:1058B0006861002028612873012000036881039833
:1058C00032002100FFF7AAFF04E0641C2406240E26
:1058D0008442C1D364488068804707B0F0BDFFB5FB
:1058E00081B01E0000273C0016E02001315C002939
:1058F0000FD085190298E91C06224EF0C2FA002842
:1059000007D168780199884203D10398A9780127C3
:105910000170641C2406240E534840688442E4D37A
:10592000380005B0F0BDF7B5160000273C0014E0C4
:1059300018206043315C00290CD085190198291D7D
:1059400006224EF09EFA002804D169780098814220
:1059500000D10127641C2406240E4348884D723868
:1059600001000000A85700000004000068F780D381
:1059700000688442E6D33800FEBDFFB581B01E004A
:1059800000273C0016E018206043315C00290ED04F
:1059900085190298291D06224EF07DFA002806D1AD
:1059A00069780198814202D1039801270470641C30
:1059B0002406240E314800688442E4D33800BAE754
:1059C000F8B50D0007002D4E00240CE018206043B0
:1059D000285C002804D02A0021003800FFF728FFA7
:1059E000641C2406240E30688442EFD3F8BD70B5E1
:1059F00000248300CC50214D210008E04B009E186C
:105A00007678864200D1D454491C0906090E2B68C9
:105A10009942F3D370BD80000858704770B50021DB
:105A2000164D0C0007E04A004B1D1618491C0906CC
:105A30007370090E84542A689142F4D370BD0F49E3
:105A400002000968002004E04300D35C002B02D070
:105A5000401C8842F8D3704730B50023074C2468B7
:105A60000FE05D00455D002D0AD101255C00055564
:105A700020180B6040781070002030BD7065050064
:105A80005B1CA342EDD30120F7E7234B10B51B6845
:105A9000040000209C4208D218236343D45C002CED
:105AA00003D09818C0780870012010BDFFB581B0F0
:105AB00080200A9E4EF0D6EE00901748002420E089
:105AC00018276743F05D002818D0BD19687802993F
:105AD000884213D10199281D06224EF0DCF90028D6
