:100000000100000000000000000400000094511AEC
:100010001CF09FE51CF09FE51CF09FE51CF09FE5A0
:100020001CF09FE51CF09FE51CF09FE51CF09FE590
:1000300009420EBFECDC040070DC040074DC040038
:10004000CCDC0400D0DC0400D4DC0400D8DC0400E8
:10005000E5DC0400000000EAB53501EA28008FE283
:10006000000C90E800A08AE000B08BE001704AE24A
:100070000B005AE1AE35010A0F00BAE814E04FE276
:10008000010013E303F0471013FF2FE118F90400F8
:1000900068F904000030A0E30040A0E30050A0E3B2
:1000A0000060A0E3102052E27800A128FCFFFF8A44
:1000B000822EB0E13000A128003081451EFF2FE1E3
:1000C00004309FE503308FE013FF2FE191DA040045
:1000D000F8B5050001F035FC0027FF43002804D1E6
:1000E000686902F07AF800282DD02A8950194179E0
:1000F00003790906091419430C180E3288180606EC
:10010000360E280001F010FC002807D1617D227D09
:100110000802083610433606360E03E0607B217B6A
:100120000002084301F0DAFB00280CD02200A11DD8
:1001300028002E8102F0A1F9002804D0280000F048
:1001400048FB0020F8BD3800F8BD002070470000D3
:10015000404870B5042B046840680ED14C610B898F
:100160005B18DC799D7923022B43E52B01D1162303
:1001700000E004234DF090EE03E0012B01D14C612F
:10018000F8E7002070BD70B50C00324D1600052B4D
:1001900016D120890019C17882780802104303D152
:1001A000200000F016FB04E02000FFF791FF00287C
:1001B00001D1012070BD32002100286805230DE027
:1001C000032B06D1200001F0ACFB320021000323F9
:1001D00004E0022B04D1A868320021004DF05CEE4F
:1001E000002070BD10B51B4C206800280CD101F018
:1001F000A2FB2060184A2021A0604DF052EE174A61
:10020000606820214DF04CEE10BD10B5114C2068F7
:10021000002808D0002213214DF042EE20684DF056
:1002200044EE0020206010BD70B5040000F073F8AB
:1002300005000120207320004DF03AEE280000F068
:100240006FF870BD0200034810B5006868214DF0DA
:1002500028EE10BDE4F90400410100007701000020
:1002600010B54DF0A0ED4DF028EE002010BD10B5FA
:10027000FF48006800022BD5FE4CFF4A0020C11C3D
:100280006163A36B81005350031D6363A36B8918E3
:10029000801C0C284B60F2DBF848FFF7D3FFFF21EE
:1002A000F74A2D3102E0401C8842FCDB50780028E0
:1002B000F9D0F4486063F448A063C0076063F34872
:1002C000A063F0480E3860630520A063012010BDD4
:1002D000EA48401CFFF7B6FFFEE7E94910B5486061
:1002E00003F07AFF10BD202800D3FEE7E84A800023
:1002F0001358002B00D0FEE7115000207047E44A4D
:1003000000218000115008007047E2480068002872
:1003100000D001207047802010B54DF0D2ED10BD07
:1003200010B54DF0CEED10BD02688368C1681000B5
:10033000184770B5052804D2D74D84002B59002BDF
:1003400001D0012070BD2C23D34E4343DC3E9B19CA
:100350002B5135000401F03528516019C2608160CD
:1003600000214160CD4919615861002070BDFEB582
:100370000E001700052815D2C7490201143155187F
:100380006968C54B840000290DD1012201970096B0
:1003900002921859436902694DF096ED002801D187
:1003A00001206860FEBD18591D004DF092ED2859DE
:1003B0003A0031004DF090ED28594DF092EDFEBD20
:1003C00010B504004DF090ED206010BDAC4970B543
:1003D0000878401C0006000E0870012149044018EE
:1003E000FFF730FFAE4D6C6AE00705D04DF080EDB1
:1003F00003F0DCFFA8176862AA4EA0070CD5A86A14
:1004000002218843A8622020F060491F510B25A9D2
:1004100001000000FC030000000400005AEF5E131E
:100420006962B1680143B16003F0C2FF600705D59E
:10043000A86A04218843A86204F04BF820070AD573
:10044000A86A08218843A8628020F060C9436962D5
:10045000B1680143B160012070BD974870B5046870
:10046000904EA10706D500210161B26D0120904791
:10047000022084432006000F03D0E0208443102094
:10048000044300250AE0E00706D0A8003258002AFD
:1004900002D021002800904764086D1C002CF2D186
:1004A000002070BD70B5FF25834C6D1CE56083484E
:1004B0000068002801D0002102E081480021006886
:1004C0004DF024EDA0682843A060012070BD70B5F8
:1004D0000124794D8440EC601EF099FBA86820430C
:1004E000A860012070BD74480121C90310B5C16026
:1004F000744A136A734C0023403C23601362826881
:100500000A438260012010BD6B480121090410B527
:10051000C1606C4A536A6B4C0023403C6360536279
:1005200082680A438260012010BD70B50124624ECA
:100530008440F46003F07EFA050040070BD502F01A
:10054000DDFD002803D0282016F099FF03E003F01A
:100550005FFC03F0C6FC280003F077FA280003F0E4
:1005600079FAB0682043B060012070BDF8B5464DFF
:100570004035EC68E00702D0A817E8600440600747
:1005800004D50420C043E86004208443200606D537
:100590008020C043E860802084434DF0BCEC2007FD
:1005A00009D50820C043E8600820844320F015FEE8
:1005B000082002F069FAA00606D52020C043E860B2
:1005C0002020844302F051FC200407D50126F603C5
:1005D00030004DF0A0ECF043E860B4436003400FFE
:1005E00006D00720000421000140C943E96084438C
:1005F0002002000F30D0200224D523494039C8689A
:100600008A011043C86030480068002803D188047C
:100610008078800702D401200005044303F04AFAE1
:10062000002804D0012002F0EDFB02F009FC1A4979
:10063000002071318874802003F09BFA0120C005EE
:100640004DF068EC0F273F0526003E40300002F0D9
:1006500045F9F043E860BC43E000400F09D00727AC
:10066000BF0626003E40300002F0A7F8F043E860E5
:10067000BC43E00638D51020C043E8601020844316
:1006800024E000000029008040200080B85201C012
:1006900040000100080100040F000080FF0C000072
:1006A000070080FF2434000478FC0004EC130004ED
:1006B000190300000030008000280080E4F90400E5
:1006C00044FF040080E80080C8FE040003F012FB31
:1006D000002809D00DF058F8002805D01B4900204B
:1006E0008874102001F0F9FE600003D51848E86016
:1006F000C0438443A00003D51648E860C043844348
:10070000002C06DA0120C00702F072F80F48813889
:10071000E860114881680122920511438160F8BDAB
:100720000D4B0122920510B5DA60FFF71FFF012083
:1007300010BD70B50125084C2D07E5600BF081FF59
:10074000A0682843A060012070BD000080000080E8
:10075000FFFFFFBFFFFFFFDF0028008010B5040090
:10076000002A03D0200003F085F900E000242000D7
:1007700010BD7CB50C0015004979237909060914D0
:1007800019430B19818842692433602914D96039CF
:1007900020328180517EC906CA0F00922A0001A929
:1007A00004F047FCA071000AE0710198001B207161
:1007B000000A607101207CBD00207CBD30B50400C2
:1007C0002020208165692018AD7A05706469E47A7B
:1007D00044700171090A4171110A8271C171190ACB
:1007E0008370C17030BD002810B507D001690029A1
:1007F00005D14189C08803220DF0DAF810BD4DF013
:1008000062EB10BD10B50189C1220818418D00248A
:10081000D200914208D1010006221231EB08994220
:1008200001000000F80700000004000009358D7F7A
:100830000C304CF08DFE002800D10124200010BDAA
:10084000FEB50400002007000290019020890126D7
:100850000519A8780007800F022800D000266069DB
:10086000407A02280CD12000FFF7D6FF012807D1DB
:100870002020A7802073FF49C868401CC860FEBDC7
:10088000A0880028FBD00DF07EFD002867D028004E
:1008900004F086FC00285AD1002E12D0012220003C
:1008A00069460DF0A6FF00280BD00098002800D064
:1008B000012000284BD000214F200DF029FC029090
:1008C00008E0200001A90DF088FE002800D00120DA
:1008D00000283CD00DF057FD002848D0E6480125FF
:1008E000056116F007FE16F016FD00280CD117F072
:1008F00030F8002808D1E1480760E1480780DE4869
:100900008570032016F0C5FD0299FF200DF05BFDF8
:10091000DC4D2888002804D0DB4904200856401C00
:100920000AD00225012003F0B9FC6D1E09D0D2487F
:10093000007A0028F6D104E00DF013FDCE482F8098
:1009400007721D2016F0A5FDCB48C7600FE06B466F
:10095000187900280BD12020A7802073FEBD002E1F
:10096000FCD00222200069460DF043FF01E0002E7A
:10097000F4D016F0E4FC0028F0D0A0880028EDD0D8
:1009800014F0C8FC0028E9D114F0AEFC0028E5D131
:1009900020890019C178CA0701D1801D00E01230FA
:1009A000BA4AD37B002B0ED01289092A0BD10078CA
:1009B000C00708D0880602D516F0FAFDFEBD1B2040
:1009C00016F067FDFEBD0AF091FC0128FAD016F082
:1009D000CAFDFEBDF7B50022070048780E00097871
:1009E00005020D432035280032300104A848090CC7
:1009F0004DF09EEA040020D028001230A0806761EC
:100A00002027E019122127814DF096EA2B04029A43
:100A10001B0C12212000FFF7DBFE32202081201862
:100A20002A0031004DF08CEA2000FFF709FFA08872
:100A3000002804D12000FFF7E0FE0020FEBD278142
:100A400016F092FC002802D0052016F022FDFFF7D8
:100A500076FC914B05008F4821001C68002200683D
:100A60000523A0472800FFF76FFC0120FEBDFFB55E
:100A70000120904083B0039F0406240EFF37813786
:100A8000387A0E00150020422ED1FF2291324623E3
:100A900001A902A80DF01AFB002825D0387A1821E8
:100AA00020433872019C103420004DF046EA06982D
:100AB000002801D1052000E00D2060722572200081
:100AC000627A0C990A304DF03CEA310006220C3172
:100AD000A01C4DF036EA0199182088720020C872D7
:100AE000029903980DF0BEFA07B0F0BD1A004AE66D
:100AF0008288602A10D9603A828048790A79000693
:100B00000014104324300871000A4871E6208871EF
:100B10000020C87101207047002070471FB501AA4E
:100B20000400009202AA03AB17F0C5FA0198020470
:100B30000298121401040914200017F027FC200069
:100B40000399C0304182019981820299C1822000BB
:100B50000EF0D4FC1FBDF1B5002486B026002500A0
:100B600005A80EF015F80028BED06B46587DC106CA
:100B700001D48006B8D56B46187D0007000F012808
:100B8000B2D1464F0190387802A90EF015F83978A5
:100B90000129A9D0069A0B201056002903D16B46D3
:100BA000997D0D072D0F334F3968884206DA796831
:100BB000884208DDB8680126002895D001244DF050
:100BC000C4E938610BE04DF0C0E9396904F0D2FFA7
:100BD0003349884203D8B868002885D00124B86812
:100BE000A04281D0002E0BD1BC606B46187D0199CC
:100BF0000207120F00922B00220002A803F03CFA19
:100C000072E7F3B595B005000A200990002007901F
:100C100004900390169800287ED028896E694119A7
:100C200020220BA84DF08CE90BA808AB3780BFC081
:100C300001000000F40B000000040000FD5AF8CB96
:100C40000A90D87BC1071C486844149002D10A98C6
:100C5000801D00E014980590169818304DF082E938
:100C600008AB997B0007C40F0A070020920F022AE5
:100C700003D10909090700D50120169F2043203719
:100C8000002835D01AE00000400200044C1F050087
:100C900000FF0400A4FE040094FE0400A8FD04006C
:100CA000081F0500E0020004E8F9040044FC040009
:100CB00050FA0400404B4C003E000000FFF749FB97
:100CC0000190387EFC4A41070A98490F0C3003F026
:100CD000BBFD0A28099008D2002C06D00998F649D5
:100CE00000014018C168491CC1600198FFF736FB3C
:100CF0001698FFF73AFF288920216C18203829819F
:100D00002071000A10AB6071988800092072000AF7
:100D10006072B07A2070F07A6070A888002802D1E2
:100D2000287B20283FD108ABD87B00E0F7E0800685
:100D300001D50120039008AB987B0107890F022998
:100D400031D10009000720D5DC48007800281CD0EC
:100D500014F081FD002818D0387EC00615D5D8487B
:100D60000068002811D0D748006800280DD015F081
:100D70008DFC002809D00CF0EDFF012805D0D248E9
:100D80000068002801D10120049016F0F7FA00282D
:100D900009D00A9804F00EFA002804D102201CF0B1
:100DA0003FF813F099F816993000FFF7C1FE3100B3
:100DB000C03116201391085E0BF0B2FD2073139919
:100DC0001220085E0BF09FFD08AB6073987B000952
:100DD000000703D5387E4007400F00E0FF20A072D7
:100DE000A888002804D00A9804F0E4F9002872D0FA
:100DF0000020A070E070A888002802D1287B20285D
:100E000045D1A07A15F0F3FB00280AD003980028FA
:100E100004D0002130000AF038F802E0AB4900208D
:100E2000087005980078C00714D107F0B9F90028B8
:100E3000387E07D0C006C30F049A0399300007F02C
:100E4000F3FF06E0C006C30F049A0399300008F0D0
:100E500098FB049008AB987B03990209300015F0C9
:100E6000A5FC0498012812D19948008800280BD0CD
:100E700098480022006846214DF030E8002803D051
:100E800095490120087002E0162016F00CFBFFF7D0
:100E900060FA07000A9804F08DF9002815D08F4EEB
:100EA0003068002811D020001499062218304DF027
:100EB00052E8EB20A07100200200E07188483468FD
:100EC000290000680523A04702E02800FFF79FFCE7
:100ED000380022E0FFE7387EC0090DD0169A2100C5
:100EE0002800FFF70FFE00281CD10020A070E07042
:100EF0002800FFF78CFC12E00A9B169A21002800BC
:100F0000FFF7FEFD00280DD1A070E070FFF721FA79
:100F100004002800FFF77BFC2000FFF71FFA0020E9
:100F200017B0F0BDA888A070000A22000B32E07054
:100F30001698D11C04F06BF8707A02287ED130002C
:100F40001BF034FA112149010690401800780190F5
:100F5000002008AB0890987FC00708D001200890B7
:100F60000198C0077CD00198800779D420E01498BC
:100F70001CF07CF80028079072D0707A02286FD19C
:100F80000798407BC0066BD50799F07AC97A8842EA
:100F90007DD109980A2863D301984007019802D4AB
:100FA000C0075DD004E0C0079FD0019840079CD4E3
:100FB0004C48002201884C48032317F0AAFB002864
:100FC00000904AD00099A888888000F0D0FC009951
:100FD0000004000C0881009A082111730099401840
:100FE0000F2101904CF0B2EF019810210171002106
:100FF0004171E079A2790102019811438171090AD6
:10100000C1710698406A012808D10798002805D0C8
:10101000707B000702D50198A17A0173607921796C
:1010200000060014084301190198AA8810304CF0FA
:1010300092EF009930694861F17A00E05D08BA5694
:1010400001000000F00F000000040000AE802BA79C
:1010500010E0019841700199B07A08700199A88850
:101060008870000AC8700098042100F077FC089886
:101070000028A3D016F08CF9002802D0052016F025
:101080001CFAFFF770F90290194B1A4829001D68E5
:10109000002200680523A8470298FFF769F9A07AA3
:1010A00000E00BE015F0ADFA00282ED003980128DF
:1010B00026D10021300009F0F2FE26E00198000759
:1010C000D8D509980A28D5D319E70000C4350004FB
:1010D000CEFD0400E0FD0400DCFD040034FE04004D
:1010E000CDFD0400A4210500E4F90400CAFD0400BC
:1010F00044FC0400E8F90400B2FE0400CC02000441
:101100000398002801D1F949087005980078C007B4
:1011100014D107F04FF80028387E07D0C006C30F5F
:10112000049A0399300007F089FE06E0C006C30F59
:10113000049A0399300008F02EFA049008AB987BCB
:1011400003990209300015F03BFB0498012812D1E5
:10115000E748008800280BD0E648002200684621B6
:101160004CF0C6EE002803D0E3490120087002E0ED
:10117000162016F0A2F90120DCE6FFB59DB00600AE
:1011800008003768002115911F997C69002910D04B
:1011900040301C904CF0F0EE209905004118C078CA
:1011A0002031400602D4B88821B0F0BD28886828D4
:1011B00001D80020F8E717AA169100921F991698F7
:1011C00018AA15AB03F0BEFF280003F0F5FF0028B6
:1011D00051D0CA48002104AA01AB07C310ABC84ACA
:1011E00000921D7F1A7D38002B0018A906F0A7FD7C
:1011F00005002CD12000FF308130017A090623D56B
:10120000002C0CD00B21890161180968002906D037
:1012100010AB1A7F920068328B585B1C8B50017A9E
:101220004906490E01721C984CF0A6EE10AB1D7FCA
:101230001F992A01521B52180E32009201001B7D89
:101240002A002000FFF727FC00203060B1E735605E
:1012500028891C9940194CF086EA0088A880200053
:10126000FF30813010AB1B7F01263200017A9A409B
:10127000914301721DE010AB197D009101952A8800
:1012800016991698643A091D18AB04F0C7F90600C0
:101290001CD0200010AB1A7FFF3081300123017A6F
:1012A000934099430172288808382880B888083804
:1012B000B880002C08D00B2080012018006800287E
:1012C00002D0416E491C416630006DE7002C14D0FD
:1012D0000B2080012018016800290ED010AB1A7F66
:1012E000920068328B585B1C8B5001680A69521C53
:1012F0000A610068C168491CC1601C984CF03CEE52
:10130000010010AB187F1F9A03011B1A9A180E32A6
:101310000092020010AB1B7D2000FFF7BCFBD3E75F
:1013200000280CD00B21890141180868002806D03C
:101330000269521C02610868C16C491CC164704793
:10134000FFB583B004001E000C9F0E9D1CF0D4FF5F
:10135000002820D0607A02281DD0082E1BD3082F29
:1013600001D3012060E4380006F0FDF9030080009D
:101370005D250019ED00119A109940196D4607C5B9
:1013800058005F210019C90043180D9A0599049867
:1013900003F080FD48E40FA807C86C462B0007C483
:1013A000F3E7F7B592B014000F00129800680D90A3
:1013B00000200A900D9845690800403011904CF0CB
:1013C000DCED06002430099028001CF0C1FA210051
:1013D0002C311091091D203700280F9122D0109830
:1013E00007AA08A903AB07C36B46E0790F9A010768
:1013F000387E090F4007400F07C30021B078099AD3
:1014000003092800FFF79CFF00280BD0002D08D00F
:101410000B208001281800680028F8D0016D491CB5
:1014200001659BE030886828FBD922004C3268387F
:101430000304111F081F0692021F059104900392D6
:101440000C3938381C3A0291019000925D023E56E8
:1014500001000000EC1300000004000011450E1410
:10146000387E1B0C47077F0F1A00099930003B009C
:1014700004F01CF80700300003F0A8FE00284FD04D
:101480000AA9009100200BAA01920A900D9B099ACB
:101490003100380003F0BBFC002869D01E4A0092DE
:1014A0001E4A1B4B0D98310006F081FB002802D12B
:1014B000129908605CE0129906000860018908181A
:1014C00011994CF05AE90E900A9800285BD00BAAAB
:1014D000009209990E982300320003F0C7FC070020
:1014E00051D1002D08D00B20800128180068002859
:1014F00002D00168491C01600E98807933E0000039
:10150000CDFD0400A4210500E4F90400CAFD040097
:10151000C49C0500444301C0384301C0404301C09E
:10152000002F28D03807800F0FD0002D20D00B209F
:1015300080012918086800281AD0C26C521CC264A5
:1015400008680169491C016112E0B80710D5002D37
:1015500008D00B20800128180068002802D00168FC
:10156000491C0160B079C107C90F280019F0D0FEED
:10157000002015B0F0BD3088143830800D980D99DA
:10158000808814388880079C6B461A8C10990F98B5
:10159000230003F086FC002F0AD1002D08D00B2079
:1015A000800128180068002802D0416E491C41665D
:1015B0000120DEE7F7B582B0140000250298076825
:1015C0000398019740304CF0E2EC0600C0787F6948
:1015D000400605D42037B87E400732D4012530E0DC
:1015E000002C02D1002005B0F0BDA07AC00721D0A8
:1015F000E0790007000F012805D10399220001A816
:10160000FFF7D9FE05E003992200042301A8FFF7A4
:10161000BEFD0299050001980860B079C00710D19D
:10162000002D0ED0A07980070BD52100380000F0E6
:1016300027FF06E00B208001381800688168491CEC
:1016400081602800CFE7F0B5002697B002965EE1F2
:101650000020049001F07DFD0C980007C00FC00031
:10166000039005980189081806A90AF010FC16983D
:10167000002805D1059800218180FFF7DCF846E1BC
:1016800016980C301BF006FD040005D116990120B8
:1016900012311BF02DFD0400169920000EF01EFDE6
:1016A0000028E7D1002CE5D005994C61607A02282A
:1016B0000CD120001AF0FDFC0C300290607B169AD1
:1016C000C0060599C00F03F031FC10E0207A169A8D
:1016D000012807D123009C3303F032FC20001CF0CA
:1016E000C1F804E023009C33012003F04CFC059872
:1016F00001890918CA78D20701D18D1D01E00D00BA
:1017000012350B229201A7183A68002A02D0136BF7
:101710005B1C13632A78D20705D03A68002A02D0EE
:10172000536B5B1C53638288002A62D0039A002AA1
:1017300039D12A78D2072DD189780A07920F022A47
:1017400031D109090C292ED0082904D110AB197CFC
:101750004907490F00E000210A22490000920A19B6
:101760001300FF33FF3216997933693203F040FCDE
:1017700005988088002816D1200006A9FFF7ECF90B
:101780000598FFF758F83868002802D0016A491C0C
:101790000162BCE0C3229200A21803F018FC059875
:1017A00080880028C1D0607A022827D1200006A9AD
:1017B00012F084F916990298C978007DC906C90FFC
:1017C000884202D0200011F043FE20000EF0DBFD25
:1017D00020000FF019FF012803D11699200011F005
:1017E00080FA02984030007C032803D0059900203D
:1017F00088806EE00598808800286AD02878C00725
:101800000AD101F0A3FC002806D1059808AB818815
:10181000DA7C06A807F0BCFF169803F0C9FB002885
:1018200012D005984A4A81884B4B403981800092FA
:101830000189484A091806F0BAF9002867D00590CE
:1018400001890818169044E016988079C00743482B
:1018500002D02018806A01E02018C06A746E868E5B
:1018600001000000E817000000040000429FDD783E
:10187000002801D006000836002E47D0F17908076D
:10188000000F022801D003280ED116990120FF3441
:10189000793400D0002003F090FC05982B00320032
:1018A00006A91DF099F917E0012801D0080729D1F0
:1018B00000201CF0C7FF0028FAD1320006A905A8B5
:1018C000FFF782FE002804D10598002829D00021C6
:1018D00081800498002806D0F0790007000F0228C4
:1018E00008D0032806D00598FEF7D2FF059806A970
:1018F000FFF7AFF908F085F9002812D0012008F0B1
:10190000D4F917E01B48FEF7D9FCFEE73868816878
:10191000491C81601698BF21C07808401699C8708C
:101920006EE70121002006AA0AF05AFC0028059063
:1019300000D097E610498020C04308610CF0FEF803
:10194000002802D0042008F0B0F90C490020C8603B
:10195000086125E40A4A01000120914200D00020DC
:1019600070470000384301C0404301C0C49C0500DB
:10197000800200000200010000A500804C1F05004D
:10198000888E0000022110B5017301000D481C2251
:10199000006804234CF0BCEA10BD40690069704740
:1019A00010B540691BF01DFD10BDB020704701004F
:1019B00005A010B54CF0F8EA10BD10B540691FF055
:1019C00068F910BDE8F904007364696F0000000055
:1019D000F3B5002406002500002881B014D0707AE9
:1019E000022811D002E0012002F080FC28006D1CCA
:1019F000022807D20022FE4811004CF0C2EA04007F
:101A0000F1D00AE0002C08D10022FA48110003238B
:101A100016F09DFE040000D1FEBD6661FFF7C5FF14
:101A20000004000C2081082705190F2128002773C6
:101A30004CF0AAEA30001CF0B3FB28730F20287189
:101A400000206871380AAF71E871B07A2870F07AB6
:101A5000687002980F3505602000FEBD10B50400C7
:101A6000032132304CF090EA20001C2135304CF03C
:101A70008CEA2034A07D01210843A07510BD70B50B
:101A80000400FFF7EBFF2000FF30FF220421953018
:101A90004CF08EEA2000FF215430413105004CF01B
:101AA0008CEAFF344134012100206161A06120747F
:101AB000280005F0F3FC70BD0321090270B544183D
:101AC0006169002926D1007A002803D0032801D0BB
:101AD00004281FD1FEF75BFC0500C7480021FF2248
:101AE00099324A438258002A0AD1FF239933594335
:101AF00001220E1842503000FFF7C1FF666102E07C
:101B0000491C0229EBDB2800FEF746FC606900282F
:101B100000D1FEE770BD0321090240184169002988
:101B200002D000220A604261704710B5028912316A
:101B300012189170090AD1700F21FFF723FF10BD11
:101B40000A0003210902411810B5496926314CF0F9
:101B500038EA10BDF0B58FB00600149D159C170033
:101B6000092916D1382101A84CF026EA04206B4639
:101B70009880A248D88002A806223900801C1D81C6
:101B80004CF006EA04A82A002100801C4CF000EA70
:101B900005E023000022290001A805F096F9300095
:101BA00001A91DF0B6FC0FB0F0BDFEB50C3A0D005A
:101BB00014060700240E1021102C00D82100032049
:101BC00000023E1870690A00FF3029006D300831AC
:101BD0004CF0DEE972690094FF326D3201922B788D
:101BE000AA1C09213800FFF7B5FFFEBD10B504009F
:101BF00008004979C90615D5010060318A784B780B
:101C0000110219430922633005F02DFA002809D08A
:101C10000321090261184B694278811DA433200019
:101C2000FFF7C3FF012010BDF8B50D00060005F059
:101C30001CFC040025D029002A00AC3150322000C1
:101C4000009105F043FA01206867E81DF9300700AC
:101C5000806802F0F8FC0021B9602079022812D1D6
:101C60002000603081784078090201430B36DAA801
:101C700001000000E41B000000040000B6F0A8CC46
:101C80002000009A633005F017FA70692100FFF711
:101C9000B7FF002811D10020F8BD20006030817806
:101CA00040780A0202432100009863314CF07AE93F
:101CB000A0798006800FC03568822000F8BDF3B59A
:101CC00081B00C00019805F0DAFB05001ED001215F
:101CD000F82001530026F42006516879C00622D569
:101CE000E01DF9300700806802F0B7FC22002100F7
:101CF000AC3150320C002800BE6005F0F1F90198BB
:101D000029004069FFF77CFF002801D10020FEBDBB
:101D100028006030817840780902014328002200C1
:101D2000633005F0C9F92800FEBD032109024018FF
:101D300010B54069543005F057FC10BD7CB50C005F
:101D40001500069900910321079A09024018019293
:101D500040692A003530210004F010FF7CBDFFB53A
:101D600085B00E001D000189446908180390200009
:101D700004A9FFF737FE070002D1012009B0F0BD2A
:101D80000320000200962618726903991300049834
:101D90002C33263205F00CFA0498817C012910D0EE
:101DA0000022009201927269010013002C33263246
:101DB00071312000FFF7C2FF04996031C873000A37
:101DC0000874079904982B00012205F01AF9010004
:101DD0003800FFF7B4FE0020D0E70322120280187B
:101DE00010B54069353004F0FEFF10BD10B5040099
:101DF0008EB0684605F073F8200069461DF093FB2D
:101E00000EB010BD98030004CC020004E0180500D9
:101E10000404000070B50500032000022C1860695E
:101E200028220100FF312931D8304CF0D8E80121B7
:101E30002800FFF7D2FF63690100D8330122280090
:101E4000FFF7D4FF70BD10B544692000FFF7E2FF33
:101E500003200002201841690122C0310A61406953
:101E6000C0304069002803D0817AFD221140817280
:101E70000020C6E770B5002145692800FFF7ADFFD7
:101E8000032109026C1863690100FF335B1C002207
:101E90002800FFF7ABFF60690121C03081606069F5
:101EA000C030C268002A03D1C16028004CF09AE813
:101EB000002070BDF7B584B005000E0047690089A9
:101EC00003A9401902903800FFF78CFD040002D1ED
:101ED000012007B0F0BD0320002200023818009254
:101EE00042690299130003982C33263205F060F9F9
:101EF0003100039801224031002305F082F80700E9
:101F0000706F00280BD0607B012108436073069836
:101F1000002801D0FB4800E0FB48A06109E00698DA
:101F2000002803D0280000F0E5FA02E02800FFF7BF
:101F30008AFF39002000FFF702FE0020C9E7FEB546
:101F40000E00018945690F18280001A9FFF74AFD15
:101F5000040001D10120FEBD032000220002281848
:101F600000924269019813002C332632390005F0A3
:101F70001FF93100019801224031002305F041F89A
:101F8000617B012211436173E049A16101002000DE
:101F9000FFF7D5FD0020FEBDF7B586B0032109028D
:101FA00006980026406945186C690698543421004B
:101FB00005F065FA070016D068693A3004F096FD1E
:101FC000002829D068693A3004F0A4FD0028686927
:101FD00004D04179801D16F035FB02E0263004F074
:101FE00076FA060001D10020C8E668693A3005F0AB
:101FF0006BF9020021002000D431503002AB07C33E
:1020000022004032B43901920091079A08992300C6
:10201000300005F0DCF9012622002100069840324C
:1020200020310023FFF79BFE002801D0002608E0A6
:10203000012E06D139000931200004F020FF0020D4
:10204000A06730009AE670B50500406903210902D7
:1020500040184669280054363100FFF730FE04006E
:1020600001D1002070BD20790122022800D0002279
:1020700031002800FFF71EFF002801D075E07F2007
:1020800001000000E01F000000040000E52A7BA022
:10209000200070BD21000931300004F0FAFEEAE7AB
:1020A00070B50500406903210902401846692800FF
:1020B00054363100FFF7CCFD04000AD0310028006F
:1020C000FFF747FF002804D121000931300004F058
:1020D000E0FE002070BDF8B505000E000089170075
:1020E000401981790024090716D54079C00709D025
:1020F0002800FFF7B2FFF8BD012002F00BF9641CC5
:102100002406240E3A0031002800FFF74FFF002874
:10211000F1D1072CF0D3F8BD2800FFF7C1FFF8BDBF
:10212000FEB50C000600086F1700401C06D1E06EDB
:10213000401C03D1200005F0C5F9FEBDFEF73BF9B8
:10214000050002E00021FEF7BFF876484BF058EF9B
:102150000028F7D12800FEF733F9300001A9FFF776
:102160004BFC0500E9D00320000236180094726988
:10217000019813002C332632390005F06DF8706990
:102180003A3005F0ABF8020070692030417E807D66
:102190000907CB0F8006C10F019805F066F9E06EC4
:1021A000401C0128E06602D1206F401C20672100FE
:1021B000019801224031002304F02DFF0100280086
:1021C000FFF7C7FCFEBDF3B581B006000320000297
:1021D000351868690400FF30553007000068543432
:1021E000002820D0FC20005D009019F062FD029ACA
:1021F00021003000FFF794FF0098002814D0012838
:1022000011D16869484A2030017D0823491C0175B5
:102210000098210005F0CAF9444A454920000823E6
:102220007E6105F0AFF9FEBD3F4A0098210008230A
:1022300005F0BCF968692030C17C491CC174FEBD41
:1022400070B50E0011000322120284186569FF2286
:10225000543515325051606906222C304BF0ACEEEB
:1022600060690622263031004BF0A6EE314A324931
:102270002800082305F06AF970BD032109024018FF
:102280004069002803D02030407DC007C00F704750
:10229000FFB581B0050016000A9FFFF7EEFF00288A
:1022A00012D02800FFF74BFD032000022C186069B4
:1022B0000299801D32004BF080EE60693A00467151
:1022C00004992800FFF7BCFF05B0F0BD0321090207
:1022D00040184069FF30413080690006000E7047A9
:1022E00003210902401808B54069C08E009008BD5E
:1022F000020010B5FFF7C1FF00280BD00320000239
:102300001018416920314A7D520852004A754069CF
:10231000FFF7B8FB7FE5000059240000AB1D00006B
:10232000D91D0000B436000421740000409C000058
:102330004D74000080969800757400000321090216
:102340004018406901222030417D1143417570479A
:1023500070B5060086B014000D000AA807C8002951
:1023600001D1059105A9009301AB07C30320000229
:102370003018406923000100FF31953135302A00C3
:1023800004F0BDFA06B070BDF0B5060003200002EF
:10239000341860690F0041791500801D8FB016F068
:1023A0005BF9002810D001002B003A0001A804F0CE
:1023B000ECFC300001A91DF0C0F83000FFF7BFFCB5
:1023C00060690121C030C1600FB0F0BD70B505007B
:1023D000032000022C1860692030417DC90712D00B
:1023E000817DC9060FD5007E00220007C10F28009D
:1023F000FFF7CAFF606901222030007E0007C10F8D
:102400002800FFF7C1FF70BD0FB503210902401876
:1024100041696B46FF319A8881318A8241691A7A13
:10242000FF3181318A754069197BFF308130C17578
:102430000FBD30B50324240200194469FF348134F0
:10244000257D0D70647D4C704169FF318131897D3E
:1024500011704069FF308130C07D187030BD30B5DB
:1024600003242402001944692034A57D0D70E47D05
:102470004C7041692031097E117040692030407EE6
:10248000187030BD0321090210B5441826A3537FEC
:1024900001000000DC23000000040000CDBBFE1D95
:1024A000606900280BD0FF304130C069002806D099
:1024B00002F0E7F860690021FF304130C161B4E407
:1024C000EAE70321090240184069FF306D30704788
:1024D00003000A0000B5FFF7DAFEFD21002814D042
:1024E0000320000218184369C0335A614069030091
:1024F000C033002A08D02030407DC00701D01869C1
:1025000009E0907A0840907200BD002AFCD0187B48
:102510004307F6D5C0070028F3D100BD10B504006D
:10252000FFF7A5FC2000FFF7B9FC00207DE470B5A3
:102530000025038944691B185E78002E0BD0032EFA
:1025400014D1637A022B02D11EF06AFC01E0FFF77E
:10255000CCFD01250AE0607A032801D0012805D1CD
:102560001879012802D108000EF085FF280070BDFF
:1025700010B516F09DF8002010BD10B504003020F5
:102580001FF0EDFE01F00DFCE00602D519F013FC82
:1025900010BD19F0B2FB10BD10B501F0DBFA002838
:1025A00004D0012000F07EFC00F09AFC0020FFF730
:1025B000E4FF10BD70470000022910B505D00329C3
:1025C00003D0042901D0052903D1B94BFF21491CAF
:1025D0009960042A05D0052A03D0062A01D0072ACB
:1025E00007D1002805D100210A2208000B003CF089
:1025F0005EFC10BD7047042803D2AE498000085C21
:102600007047FF20704710B50C000020FFF7F3FF64
:10261000A04201D100F068FA0120FFF7ECFFA042D0
:1026200001D100F068FC0220FFF7E5FFA04201D1D4
:10263000FFF7B2FF10BD10B50C000020FFF7DBFF65
:10264000A04201D100F06BFA0120FFF7D4FFA042B5
:1026500001D100F055FC0220FFF7CDFFA04201D1CF
:10266000FFF7A8FF10BD042910B507D004DC02292C
:1026700004D0032906D101E0052903D100F00DFAA9
:10268000002800D0012010BD022910B505D0032973
:1026900003D0042901D0052901D100F0AFF910BD04
:1026A000022910B505D0032903D0042901D005293A
:1026B00001D100F05AF910BDFF280BD07D4A00214E
:1026C0008B00D35C834202D10806000E7047491C80
:1026D0000429F5D3FF207047FF280CD0754A00214C
:1026E0008B009B185B78834202D18800105C704796
:1026F000491C0429F4D3FF207047042804D26D49F3
:102700008000401840787047FF207047FF280CD0A9
:10271000684A00218B00D35C834203D18800801873
:1027200040787047491C0429F4D3FF207047FF28E4
:102730000CD0604A00218B00D35C834203D1880017
:10274000801880787047491C0429F4D3FF20704713
:10275000F7B582B007000E000C2901D2092F02D371
:10276000002005B0F0BD00255249A8000A5CBA421D
:102770001ED14418A278B2421AD02806000E3900A1
:1027800001901FF059FF002812D0A670E07804993C
:102790004007400FC9000843E0700198320039003B
:1027A0001FF04CFF002808D0E07802210843E070B9
:1027B0006D1C042DD8D30120D3E73E48AA00FF2189
:1027C00010188170E0784007400FE070C8E7F0B55E
:1027D00006000800374F002204219300FC5CB4423D
:1027E00009D1DD19EC7823000B43002802D0230027
:1027F000FB242340EB70521C042AEED3F0BD2D4A7B
:1028000000218B00D35C834206D188008018C078F9
:102810004007C017401C7047491C0429F1D3002011
:10282000704770B505000C00100001F0F2F92000AF
:102830004BF0C0EB2800FFF74FFF022805D003281C
:1028400003D0042801D0052803D1200000F096F819
:1028500070BD20001FF028FE70BD10B50400C00040
:1028600005D50122120311040C20FFF7DAFF200125
:1028700005D50122D20211040B20FFF7D2FF60011F
:1028800005D50122920211040A20FFF7CAFF10BDEC
:102890000120C00310B501F0BCF901202071953B67
:1028A00001000000D8270000000400009E612D7187
:1028B000C0074BF08AEB054908698A0D904308610F
:1028C00010BD00000028008090FF040080200080E0
:1028D000F3B581B00198FFF7F9FE04000198FFF706
:1028E0001FFF05000198FFF72CFF012706003F0599
:1028F000022C02D1042D22D109E0002C01D0012CA0
:102900001DD12B1F4BF094EB0403080E141B102059
:1029100001F089F9380010E0202001F084F901204D
:1029200040050AE0402001F07EF90120800504E026
:10293000802001F078F90120C0054BF07EEB029871
:10294000002816D10198FFF764FF002811D0331F2B
:102950004BF06EEB060F0F0F0F07040F0021102036
:1029600005E06349A0004018C0780021C00823F0AA
:10297000B7FAFF2201991000FFF74FFEFEBD0800D5
:10298000002110B5FFF7A4FF5A490020887410BD3C
:1029900010B50400C00203D501210220FFF798FF03
:1029A000A00203D501210320FFF792FF600203D5A7
:1029B00001210420FFF78CFF200203D5012105200F
:1029C000FFF786FF01200007844205D040108442B3
:1029D00002D0401084421AD1FF208206A11808D0EC
:1029E000891804D0C206891804D10C2002E00B20FB
:1029F00000E00A20FFF77AFE022805D0032803D062
:102A0000042801D0052802D10121FFF761FF10BD84
:102A1000F8B504000E0017000800FFF792FE05004D
:102A2000002C01D0012C2AD13B1F4BF002EB0403F8
:102A30000C151E28102001F0F0F8102001F0F9F814
:102A40000120000519E0202001F0E7F8202001F026
:102A5000F0F80120400510E0402001F0DEF84020B1
:102A600001F0E7F80120800507E0802001F0D5F8AB
:102A7000802001F0DEF80120C0054BF0E2EA2B1FB8
:102A80004BF0D6EA060F0F0F0F07040F012110209D
:102A900005E01749A0004018C0780121C00823F0C4
:102AA0001FFAFF2231001000FFF7CFFDF8BD010033
:102AB0000020022910B518D0002901D0012913D116
:102AC0000D4C0022206846214BF04EEA00280AD126
:102AD0002068002208214BF048EA002803D14BF07F
:102AE000B4EA002801D1002010BD012010BD000073
:102AF00090FF04008000008044FF0400022010B515
:102B00001FF037FC01F030F8002804D0012000F05D
:102B1000D3F900F0EFF922F012FD01E022F0FAFD06
:102B20000028FBD00021082208000B003CF0C9F966
:102B300010BD022010B51FF08BFB10BD70B500203A
:102B4000FFF763FD04000020FFF7E1FD0500012011
:102B50001FF00FFC8E4948680222104348608D49DF
:102B60001005886001F08DF808204BF02EEA2A004D
:102B700021000020FFF72AFD70BD70B5FDF72FFC86
:102B8000050085480068C00710D00020FFF7D6FF79
:102B90007D20C00021F0BCFE00204BF05AEA04006A
:102BA00002E000204BF054EAA042FAD02800FDF7E2
:102BB0001BFC70BD002010B5FFF727FD04000020AE
:102BC000FFF7A5FD020021000020FFF773FD10BDF7
:102BD00010B5FDF704FC04006F480068800701D5BC
:102BE000FFF7E8FF2000FDF7FFFB10BD002010B548
:102BF000FFF70BFD04000020FFF789FD0200210014
:102C00000020FFF73AFD002800D0012010BD38B5A4
:102C100000F0AAFF002826D1401E00905E485F4CBD
:102C20000068C00711D06068401C18D0A0681FF071
:102C300033FC5B494BF010EA00906168884201D395
:102C4000002000E0081A009009E068463BF0A7FF6A
:102C500000280CD0009860601FF01AFCA06021785A
:102C60000098884203D3FFF7C1FF002801D100205C
:102C700038BD012038BD484810B50068C00705D0F0
:102C8000FFF7C5FF002801D0012010BD002010BDB6
:102C9000002010B5FFF7B9FC04000020FFF737FD56
:102CA000020021000020FFF7F9FC10BDBBCCB012E0
:102CB00001000000D42B0000000400006A0E58C57B
:102CC00010B5FFF79DFF002804D000203CF098F9D4
:102CD000002801D1002010BD012010BD334810B5DF
:102CE000006880070DD434480078022809D1FFF726
:102CF000CCFF002805D0FFF7E3FF002801D0FFF745
:102D0000D1FF10BD70B50020FFF789FC0400002042
:102D1000FFF707FD294905000968172048830820A7
:102D20004BF098E900F0AFFF00F0A5FF1E4901202D
:102D30004005C8602A0021000020FFF76FFC1948F9
:102D4000416802229143416001201FF08BFA70BD5F
:102D500070B5164D2868C00722D1FFF762FF002822
:102D60000BD1134CE0681FF0A1FB1549884204D930
:102D70001FF098FBE0603BF03CFE2868C0070FD1D5
:102D8000FFF74FFF00280BD0FDF733FB0400FFF7E0
:102D900048FF002801D0FFF7B5FF2000FDF72EFB0C
:102DA00070BD000040200080002800807CFF0400EF
:102DB000F8F90400E2040000E70C050054F90004EF
:102DC00080841E00F8B5FDF714FBD24D070028687B
:102DD000002830D121F050FF86211F2021F002FF72
:102DE00021F040FFCC4E3068012109070843C9108B
:102DF0008843306000F017FF040000F014FFA04289
:102E0000FBD030680921490608433060C349C869CE
:102E100008229043C861C1494031886A80229043AA
:102E2000886221F029FF0821202021F0E6FE21F010
:102E300019FF012028603800FDF7E0FAF8BDF8B569
:102E4000FDF7D7FAB34D0090286801283AD122F057
:102E500045F9002807D121F00FFF0821202021F09B
:102E6000C1FE21F0FFFEAD494031886A8022104347
:102E70008862AA48C1690826B143C161A64F386873
:102E800051050843C9108843386000F0CCFE0400A7
:102E900000F0C9FEA042FBD00A2021F043FD9F496B
:102EA000C8693043C86138680921490688433860D9
:102EB00021F0E2FE04211F2021F09FFE21F0D2FE2E
:102EC000002028600098FDF799FAF8BD10B50400BD
:102ED0000120FFF7A4FB002C05D191490968CA071E
:102EE00011D0C9060FD506280DD00120C00300F06F
:102EF0009EFE0120C0074BF0AEE8884940310869CA
:102F00008A0D1043086110BD012010B5FFF787FB43
:102F1000062803D000F032FE0028FBD110BD0820A7
:102F200010B51FF030FA10BD082010B51FF09AF947
:102F300010BD38B5002000900120FFF770FB0400A1
:102F40000120FFF7EEFB050004201FF01CFAFFF73D
:102F500076FF00F0E4FE20204BF040E800F0B3FEE6
:102F600068464BF088E801216E4AC906002800D067
:102F70000098916000F002FE002804D00120FFF7C5
:102F8000A5FFFFF7C1FF2A0021000120FFF728FB62
:102F900038BD10B5FDF72DFA040061480068400700
:102FA00002D50020FFF7C5FF2000FDF727FA10BD6E
:102FB000012010B5FFF733FB04000120FFF7B1FB40
:102FC000020021000120FFF762FB002800D0012051
:102FD00010BD08B568464BF052E8002803D0FFF753
:102FE000E7FF002801D1002008BD012008BD4C48A2
:102FF00010B50068400705D5FFF7EBFF002801D0AA
:10300000012010BD002010BD70B50120FFF707FBA7
:1030100004000120FFF785FB05000020FFF7FFFA01
:10302000A04204D02A0021000120FFF741FB70BD1F
:103030003B4810B50068000709D4FFF7D8FF002807
:1030400005D0FFF7B5FF002801D0FFF7DDFF10BD69
:1030500010B500F04AFE30484030816A324A1140D3
:103060008162324908690322D202104308612B4869
:10307000016A490849000162274801682C4A114049
:10308000016010BD38B5002000900120FFF7C7FA9D
:1030900004000120FFF745FB050020204AF0DAEF8D
:1030A00000F034FE1F490120C006C86068464AF09F
:1030B000E2EF002808D1FFF7CBFF4AF08B01BA7886
:1030C00001000000D02F00000004000039D48BA9BB
:1030D000E4EF002808D0FFF77FFE05E00098002805
:1030E00000D0012000F030F82A0021000120FFF775
:1030F0009FFA04201FF0C0F838BD0E4810B50068D4
:1031000040070FD4FFF76FFF00280BD0FDF77BF9C6
:103110000400FFF768FF002801D0FFF7BDFF200083
:10312000FDF776F910BD000008FA04004021008088
:10313000402000807CFF040000280080FDFF7FCC41
:1031400040220080F5FFFFBF70B500F0C6FD1A48B1
:10315000816A1A4A11400722D2051143816216483A
:10316000C0300169164A1140016121F0C1FF154DBF
:10317000154E002802D1286A30432862134C20786B
:10318000FF2809D121F082FD122021F02AFD04211F
:103190000840207021F070FD2078002802D1286AB4
:1031A00030432862044940390868094A1040094AF6
:1031B0008018086070BD000080210080FDFFFFCFF7
:1031C000FEC7FFFF40200080010001000CFA040050
:1031D000F0FFFF9F0E000040FF4840687047FF4926
:1031E0008869401C88617047FC49086A496A7047D1
:1031F00010B528F09BF8002809D0FDF704F9F64A2D
:10320000117C002901D0491E1174FDF701F910BD90
:1032100070B5022019F05EFE07E0200035F069FF6E
:10322000E27AA17A200019F09AF80400F5D119F099
:1032300051FE002801D035F05CFF00F0B5FEE849F2
:103240000869022290430861E34C0025A561E54826
:103250002574606128F083F8656170BDF3B50400E2
:1032600083B04AF01EEF0090DB48DB4D2038007E33
:103270000E00603D0027002844D1D8492A69086A19
:10328000496A6B69121A8B411ED2009A28696969D2
:10329000801AD54AB1418518E0697941010604D503
:1032A000A581E58123F01AFA06E0800605D5A581FF
:1032B000E58123F013FA40002D1AE069012189020B
:1032C0000843E061606885800498C5498000403902
:1032D0004018006B3A2780020190BF48E75F4069C1
:1032E000009AFB17C11780187141C01B019A9941C0
:1032F0000023801A99416161206160880121C9031E
:103300000843608005B0F0BDF8B504000D004AF038
:10331000C8EEB34BAA00403BD218136B626800267C
:1033200092781507AD0F022D0ED11709042F0BD17E
:10333000A94A9D02603A92690B00978831003818BB
:103340005941401BB1410FE0012D14D112090E2A41
:1033500011D19B02020018000D00101A2B00B3417E
:103360006422190080187141616120616088012127
:10337000C90308436080F8BDF3B50C0083B0002793
:10338000C869C00403D5208D81054D0E1BE0E06A9D
:103390000026350001900EE00199A8004118042292
:1033A00002A84AF032EE6B46D87A6D1C0007000F77
:1033B00086190E2D02D26078B042EDD26B46188984
:1033C0008005450E187AC00700D00127E069290062
:1033D00002040398120C2BF00BFC0600012F02D103
:1033E0000E352D062D0E606801230288E069010468
:1033F000090C28004AF058EE7C498019096B08181E
:1034000060877FE7F8B5022019F064FD0500FF2111
:10341000774800222D314AF0F0ED060079D00221E4
:10342000B020317334183081A078F32280088000F6
:10343000104008300007000F4030A070E0784008CE
:10344000400008431040CF210840BF210840E070F1
:10345000C3208000291806220D00A01D4AF0D4EDDB
:103460002000062229000C304AF0EAED2000062256
:10347000290012304AF0C8ED002020801C203518A9
:103480003081742128004AF0D4ED534A2F001620D1
:1034900060372C66603A78735088A870100040300E
:1034A000017E002904D0C188A1808089A87002E033
:1034B0009069C088A080A868FF21491C0843A860C3
:1034C000022019F007FD70614A48007EB0DB4076AB
:1034D00001000000CC330000000400008611AE1A89
:1034E000800607D4A878002804D0A868012189079D
:1034F0000843A86007203873A8680521890208439B
:10350000A86030002CF054F83A49086902221043B0
:1035100008613649012088611C314868401C4860B8
:103520000120F8BDFFE731491C314869401C486162
:103530000020F6E72E4910B5CA68002482421ED149
:103540000020C86029488069002803D1FFF764FF84
:1035500004000AE02D4801694069814205D02C48E9
:1035600007220068012100F063FF20492039087E0E
:10357000002804D0002C03D12B2013F0F8FF10BD3D
:103580000128FCD10220087610BD10B5184C216925
:10359000814204D12E2013F0EAFF0020206110BDEB
:1035A00038B504001149002088614AF084ED104AC2
:1035B000002C5162106204D00C481C300168491C78
:1035C00001600A4C203C207E02282AD10C49C031DF
:1035D000C86802231843C860106901F07AF808220D
:1035E0000092E2880B48024B002115E0701C050098
:1035F00010FA0400C0A20080FFFFFF7FA60E0000AB
:1036000040A6008008030004B055000400A000801C
:103610000402050077340000103301F008F803209D
:10362000207638BDFEB54AF046ED0C000090FCF760
:10363000F4FEFE4DFE490190287CC969084326D15D
:1036400028002038017E07000026403F002904D0D2
:1036500080887B6D3A6D31000AE027F025FE002856
:1036600001D168690AE0B8697B6940883A6931002C
:103670008018009A5941801AA1416861002806DD2E
:103680002CF0C0F9002802D0287C401C2874019836
:10369000FCF7C8FEFEBDF8B5012000F069FC4AF059
:1036A0000AEDE24AE24E603A51651065F06801F0B9
:1036B00010F8DE4CDF4F203C207E0025002858D03B
:1036C0004AF0F8ECB26AF36A801ADB4A99412B009F
:1036D000121A8B4101D2E56130E0E06901282DD159
:1036E0001FF0A9F9032817D81FF090F9002813D16B
:1036F000E088FF30F5300004000CB842E08000D9CB
:10370000E780A088CD49FF38F5380004000C8842D6
:10371000A0802ED2A1802CE0E088C8496438000443
:10372000000C8842E08000D2E180A088C449643067
:103730000004000C8842A080ECD81AE01FF040F989
:10374000002803D03068E080706811E0B06900287C
:1037500001D0B56109E0BB4982008A58002A04D132
:10376000401C0728F8D3E78001E06089E0802089C9
:10377000A080AF4B08220092A288B34800210C33EE
:1037800000F055FF012020767069B04F01280DD15F
:10379000FCF743FE75617969302291437961AC4948
:1037A0004A6A02239A434A62FCF73CFE9F49A0887A
:1037B00048613869022188433861FFF733FFB0E67A
:1037C000F8B50400994E7068002836D0FCF725FE45
:1037D00035000700203D287E002C1ED0002829D16E
:1037E0002868002826D07068002823D027F05CFDC8
:1037F00000281FD11FF0D8F8002803D11FF0E0F8EF
:10380000002817D09349C868012252059043C86028
:103810004AF058ECFFF73FFF0CE000280AD0844C38
:10382000206900F056FFE06800F053FFFFF7FAFC54
:10383000002028763800FCF7F5FD72E67C498A689E
:1038400082420DD100208860012048617F48416993
:103850003022114341617E49486A02221043486286
:103860007047F8B527F020FD704D714C603D002881
:103870000FD0A86800280CD0A06800F02AFF08220A
:10388000009219222300744852010021083300F0ED
:10389000CEFE664E203E307E002810D003280FD189
:1038A0001FF08EF8002804D06A49C86802229043AD
:1038B000C860206900F00DFF2E2013F058FE30E69E
:1038C0000128FCD14AF0F6EB2A6D6B6D821A994102
:1038D000B0880B000021801A9941604DC5EA6CC880
:1038E00001000000C837000000040000D5CB7D7641
:1038F00000040014A842ECDAE06800F0F4FE514B3A
:103900000822009255482A0000210C3300F099FE4D
:1039100011E6F8B521380127494D4A4EBF02030090
:103920004AF0AEEB0E2D2D2D2D2D2D2D37082E7B93
:103930003133A82D6868002821D0FCF778FD0400F9
:1039400027F0BCFC002817D00020FFF743FF4AF007
:10395000C4EB4549C868012252051043C86041487C
:103960008038816AFF22920411438162380000F09E
:10397000F3F8380000F0E3F82000FCF75DFDDAE52D
:1039800000F09AF8D7E5012000E00020FFF722FFC1
:10399000D1E52B4C603CE088002804D12000243085
:1039A000A061A08803E026494439401EA161E0805F
:1039B0000120A060380000F0C2F84AF086EB616197
:1039C000206105F06CFDF06800F08DFE0822009289
:1039D000A0691C4B0288214800210C3300F031FE05
:1039E00070691F4F01280ED1FCF721FD0021716184
:1039F00079693022914379611A4A536A02218B43D3
:103A00005362FCF719FDA06940886861386902219A
:103A100088433861FFF710FE8DE5FF24F5346C61B3
:103A2000FFF70AFEF06800F05EFE064B08220092E7
:103A30000A48220000210C3300F003FE7BE5000061
:103A4000701C050010FA0400D859000020A10700DE
:103A5000B80B000050460000345202C02134000070
:103A6000C0A20080C0A8008000A700802937000005
:103A700034080000FFF719FE5DE510B52A4CA06878
:103A800000280DD0E06800280AD027F069FC012842
:103A900006D160602C2013F074FD292013F071FD15
:103AA00010BD2A2010B513F06CFD2D2013F069FD18
:103AB0001D490020486010BD1B4870B540680028B3
:103AC00031D0FCF7B4FC194C0600E06800F00BFEA6
:103AD0000025E56005F0FBFCA06800F004FE14483A
:103AE000A56041693022914341611248416A022236
:103AF000914341620F488038816AFF2292049143CA
:103B00008162440D200000F027F8200000F01FF82B
:103B1000054860388560FFF78FFB3000FCF78CFCB0
:103B20000120FFF757FE70BD701C050010FA04005D
:103B3000C0A20080C0A800800948C0697047084939
:103B40000A6902430A618A6902438A617047044A2A
:103B500011698143116170470149C043C8617047D1
:103B60008021008008490848403942685204FCD44A
:103B70004A68002AF9D1704710B522F05BF910BDF0
:103B800010B522F0C3F810BD40E80080DC480068A2
:103B900000680004000C7047D948006841680122A1
:103BA0001205114341607047D54800684168012201
:103BB0001205914341607047D1480068806BC00591
:103BC000C00F7047CE4800684168012252049143FB
:103BD00041607047CA48006841680122520411439D
:103BE00041607047C6480068816B0901090C01D02B
:103BF00000207047816B002904DA816B0906090FE8
:103C0000FBD100E0806B01207047BD480068816BEC
:103C10000906090FFBD17047B94909688A69120C76
:103C2000120402438A617047B5480068816BC90776
:103C3000FCD041680122D203914341607047B049F2
:103C400009680A6B086348680122D2031043486080
:103C50007047AB480068406A7047A9480068C06A6E
:103C60007047A7480068406B7047A5490968CA6952
:103C70008243CA617047A2490968CA690243CA619E
:103C800070479F4909680A6A02430A6270479C4963
:103C900009680A6A82430A62704799480068806B23
:103CA0008007C00F704796480068806B0007C00F00
:103CB000704793480068C0304168372291434160A3
:103CC00070478F480068C0304168082291434160C6
:103CD00070478B480068C03041680822114341603A
:103CE000704787480068C030016801220C1DD2135C
:103CF00001000000C43B00000004000021A408C231
:103D000011430160704783480068C030016849086A
:103D10004900016070477F480068416801229204B1
:103D2000114341608168121191438160FF30401C52
:103D30004168490849004160704776480068C11DE4
:103D4000F9314A6801231A434A6041689A04914351
:103D50004160816812111143816070476D480068AD
:103D6000FF30401C4168022291434160704769481E
:103D70000068FF30401C41680222114341607047D7
:103D800064480068FF30401C016801221143016053
:103D9000704760480068FF30401C016849084900CE
:103DA000016070475B4800688030416849084900FD
:103DB00041607047574800688030416801221143D4
:103DC0004160704770B5534D28688030016801220A
:103DD000114301600168504C490205D50168A143B7
:103DE00001600A204AF06EE82868803001682143AB
:103DF000016070BD47480068010080310A685208C0
:103E000052000A60816BC900FCD4704741480068C9
:103E100080300068C007C00F70473E48006880309F
:103E200001683D4A9143016070473A48006880301C
:103E3000C068704730B5374C21680A6901252D04E8
:103E40002A430A610A008032156910615069536182
:103E50009069F0209061886810221043886088681B
:103E60002023984388602068416B426B8A42FCD0D3
:103E7000FFF7DBFF0028F6D12068816819438160D5
:103E80004168012252031143416030BD214800685E
:103E90008030006970471F48006881682022114304
:103EA000816070471B4800688168202291438160CF
:103EB00070471849096880310A681F23DB05C0066E
:103EC0009A43000902430A6008680122120710435E
:103ED000086070470F48006880680003C00F704793
:103EE0000C48006881680122D20411438160704748
:103EF0000848006881680122D204914381607047BC
:103F00000448006880300168FF22521C11430160A0
:103F10007047000040FA0400000040003F488068FD
:103F2000002800D00120704710B504F0B1F9002836
:103F30000ED0FFF7F3FF00280AD03948C1680222EB
:103F40009143C16035484068C00FC00727F07FFB30
:103F500010BD10B5314CA16881420ED1FFF7E4FFCE
:103F600060684004400CFFF7FCFD60684004400CB2
:103F7000FFF7FCFD0020A060606010BD08B5274B76
:103F80005A6802435A60082200920A00254800211C
:103F9000083300F060FB08BD70B505000024042064
:103FA000FFF7E4FD1E488030C06A400013D421F0C2
:103FB000C8F800280FD00420FFF7CBFD002D01D159
:103FC0000124E40720000421084314490968FFF78D
:103FD000D5FF002070BD1249C86802229043C86016
:103FE000012070BD0E48C16802221143C1607047B4
:103FF0000B48C068022108407047042010B5FFF745
:10400000B0FD0420FFF7B2FD044CA068002804D0E6
:1040100000F073FB0020A060606010BD44FA040053
:1040200000A70080173E0000AD4908220028C8689C
:1040300001D0104300E09043C8607047A9480021B8
:104040004160FF2101707047F0B503252D03A4489E
:10405000A54CC030C20D9302870C0029A04E016A06
:104060000AD011430162016A99430162606B2843DF
:1040700060633068384309E091430162016A194383
:104080000162606BA84360633068B8433060F0BD84
:1040900038B50500002468460AF0FCFD002802D16E
:1040A000002D1AD10BE0002D0BD16B465878C107BB
:1040B00013D0400611D598780007000F0BE00124BB
:1040C0000BE0012D09D16B465878810705D5C00951
:1040D00003D0987800090128F1D0200038BD73B5CD
:1040E0006B4605005C79600708D57E4E7068002835
:1040F00004D17E482CF09CFA012070607D38AA1F04
:1041000001000000C03F000000040000727EDBAE32
:104110002800FFF7C7FF0106090E2800FFF79EFFE2
:10412000600703D46B461879000900D00120FFF71F
:1041300085FF7CBD33B56B460028997902D108070D
:10414000000F02E0012813D108096E4A6949D443DF
:10415000803100280DD06C4B6C4D01280DD0092802
:1041600010D00F2804D1C817C8600861C861086260
:104170003CBDCA600A61CC6102E0CB600A61CD61DE
:104180000C623CBDCB6062480861CD616148EEE7DE
:10419000F0B50028047A45780679477926D00129B8
:1041A0000CD10599012909D1012A06D16540D90709
:1041B00000D06640990700D567402C0001782A0698
:1041C00009040A4321020A434A492243C0314A6290
:1041D0008279C37812041B021A4332438A62C2797D
:1041E000807812043B021A430243CA62F0BDF0B564
:1041F0000026050087B06B46187D370034001E7519
:10420000002D06960ED145205875987D0120987591
:1042100018720221587299720421D9721873587356
:10422000997310E047206B465875987D90209875DB
:10423000092018720A22587211219A72D9721873C1
:104240005A73997312216B46D97318740599280013
:10425000FFF74FFF05992800FFF76CFF0698230032
:104260000207120F00923A00310002A8FFF790FFF8
:10427000012007B0F0BDF0B5002507001E482E0054
:1042800001782C00B94285B032D0077004A80AF03A
:104290000BFD002804D13800FFF7A9FF05B0F0BDE1
:1042A0006B46187C0007000F012805D8380001A9CB
:1042B0000AF00EFD002801D10020EFE70499380034
:1042C000FFF717FF04993800FFF734FF6B46587C5F
:1042D000C10601D4800600D501256B46187C230059
:1042E0000207120F00923200290001A8FFF750FFC9
:1042F0000120D3E700A7008050FA040000210080CD
:1043000000A0008011DD55DD1FDF5FDFEF2FAF2F35
:10431000F1FDF5FDFEF2FAF238B500240D4D01E095
:104320008047641CA00028580028F9D13AF0F8FF13
:1043300049F0EAEE08480A4902680092074A09482B
:10434000094B49F0E6EE09480168002901D0002038
:10435000884738BD80BD02C014000500E03D000460
:10436000D8020004CC020004009002C058FA0400F5
:10437000FEB50D001600089F0A9A0999002800D181
:10438000FEE70468002C00D1FEE7029201913200A2
:1043900029002000009721F075FBFEBD10B549F003
:1043A000BCEE0006000E10BD10B549F0BAEE0006D6
:1043B000000E10BD002810B501D049F0B6EE10BDBA
:1043C00038B514006A4649F0B4EE00982070002019
:1043D00038BD10B5040049F0B0EE2060002010BDDB
:1043E00010B549F0AEEE10BD7CB50D001600079A71
:1043F0000699002800D1FEE70468002C00D1FEE7F2
:104400000192009132002900200021F019FC0028BF
:1044100000D165637CBD10B5416B21F028FC10BD57
:104420007CB50C001500069A002800D1FEE7006854
:10443000002800D1FEE70021019200912A0021000E
:1044400021F04EFB7CBD10B521F069FB10BD10B50D
:1044500021F070FB10BD002810B500D1FEE7006808
:10446000002800D1FEE721F06EFB10BD10B521F051
:1044700074FB10BD38B51400049A0092220021F09C
:1044800091FB38BD002810B500D1FEE70068002878
:1044900000D1FEE721F0BAFB10BD10B521F0C0FB42
:1044A000112800D1122010BD10B521F0C1FB10BDA4
:1044B00070B5802049F0A4ED10498D69104900269F
:1044C0004A680C68954200D800E0641C49F098EDF9
:1044D0006D1C684231008019614170BD0848016857
:1044E000491C01600021C94341607047034880694D
:1044F00003494A68904200D8486070470030008005
:104500005CFA0400EA48006AEA49496844CF2DCCC5
:1045100001000000BC43000000040000708703B8E5
:10452000081A7047E7480169820C91430161E64926
:104530004968C16001690B22120311430161704790
:10454000E0480169820D91430161E04A4021D16058
:104550000421C9434162704770B50400FFF7E2FFD0
:10456000C82C00D2C824D8494868844200D304002B
:10457000D4480422D2434262D44A936840252B4354
:1045800093608460026905235B021A430261C86874
:104590008047200070BD01684A6902600020086100
:1045A000C948006882684A6181607047002307E05B
:1045B00082688A4202D3521A826000E083604069B6
:1045C0000028F5D1704770B5040000200BE04E685C
:1045D0000D690B682000FFF7DEFF002B02D03100D1
:1045E0002800984701202168002902D08A68002A03
:1045F000EDD070BD10B5026802E0100052691430B1
:10460000002A03D08B689468A342F6D84A610160FF
:1046100010BD10B5AC4C20680069002803D020699B
:10462000401C206110BDFFF78BFFFFF775FF0300F3
:10463000FFF778FF2168CA689A4201D960681B18A1
:1046400048681900FFF7B2FF2068001DFFF7BBFFA5
:104650002068416800290FD0FFF75EFF21684A6893
:1046600001001000FFF7A2FF206840688068FFF794
:1046700073FF2168C86010BD0021C16010BDFFB587
:1046800081B000241D00FFF75BFF802049F0C2ECE1
:104690008D4E0090306800278168002921D00C00E1
:1046A000496981600168491C016001D101210160F3
:1046B000019820600298606030680068206103986B
:1046C0006761A0600A982073FFF726FF31684A6887
:1046D00001001000FFF76AFF30682100001DFFF79E
:1046E00089FF30684168002907D00069002804D19B
:1046F0008868FFF731FF3168C860002C07D0206957
:10470000002804D0002D00D02860012403E0002DF3
:1047100000D02F600024009849F07CEC200005B008
:10472000F0BDF8B50025070067482E000468241D79
:10473000002F20D0802049F06EEC030007E00169D3
:10474000B94202D101252E0001E004001434206892
:10475000002801D0002DF2D0002E02D02000FFF75B
:104760001AFF594800684068002801D1FFF7E8FEA9
:10477000180049F050EC3000F8BD70B5802049F0C9
:104780004AEC514C05002168012008614868002866
:104790000FD0FFF7D5FE49F0B6EC2268D1619061E9
:1047A000FFF7BAFE010020684068FFF7FFFEFFF741
:1047B000B9FE280049F02EEC70BD70B5802049F09C
:1047C0002AEC414D060028680169002916D0002115
:1047D00001614068002811D049F094EC2C68A2696E
:1047E000E369801A994101006068FFF7DFFE2868DD
:1047F00040688068FFF7B0FE2968C860300049F063
:104800000AEC70BDF7B582B000250E00FFF7B5FFCA
:10481000802049F000EC01902B4800270068446894
:104820000CE0002E02D0207B304206D0A56849F073
:104830006AEC029A4019794103C26469002C01D0E4
:10484000002DEED0019849F0E6EB0498002801D144
:10485000FFF7B3FF002D06D0FFF75EFE854201D3C0
:104860002D1A00E00125280059E7F8B506000027B9
:104870003D00802049F0CEEB0090134801684C6861
:1048800017E0207B400711D5A068B0420ED8002069
:10489000002DA06006D0606928600B480068416860
:1048A00061614460FFF789FF012702E02500646928
:1048B0001435002C01D0002FE3D0009849F0AAEB6A
:1048C0003800F8BD0030008064FA04000028008041
:1048D00030B50022FA4C256807E018235343C35C27
:1048E000002B0BD1521C1206120EAA42F5D362689D
:1048F000002008E00301CB5C002B01D0012030BD7B
:10490000401C0006000E9042F4D3002030BD182356
:10491000584340180169491C01617047F683788D3E
:1049200001000000B847000000040000235DD0D45F
:10493000F7B515000600E74F002417E01820604384
:10494000295C00290FD041194878B0420BD1019859
:10495000091D062248F09CFE002804D1182161435D
:1049600049190861FEBD641C2406240E386884427F
:10497000E4D3FEBDF7B515000E00D64F002411E0BC
:104980002001295C01290AD140194178B14206D1A0
:104990000099C01C062248F07BFE002805D0641C4C
:1049A0002406240E78688442EAD32000FEBD03006A
:1049B000080010B514001900FFF7DCFFC54949686D
:1049C000884203D2002100010019C16010BDF7B573
:1049D00015000700BF4E002412E018206043295C38
:1049E00001290AD141194878B84206D10198091D18
:1049F000062248F04DFE002805D0641C2406240E33
:104A000030688442E9D33068844202D10020C04338
:104A1000FEBD1820604340190069FEBD0300080078
:104A200010B514001900FFF7A5FFAA49496888428C
:104A300003D200010019C06810BD0020C04310BDA2
:104A4000F7B515000600A348002440681CE02101CA
:104A5000695C002915D1301D49F01AEB27017C193A
:104A6000607001983100A070E01C0622143149F0FA
:104A700008EB0120E8550020E06001200003608180
:104A800004E0641C2406240E8442E0D3914880682C
:104A90008047FEBD1823594310B58C188D4A6169B3
:104AA00012699047002802D0E17822F005FE10BD7F
:104AB000FFB583B00F00874D0C9EE96803988847C7
:104AC0000D300121814000242800019100683BE065
:104AD00018216143715C002933D1381D49F0D8EAAF
:104AE0001821614302918D19687005983900A870EA
:104AF000281D0622143149F0C4EA0299012070549D
:104B00000698E8703800083049F0C2EA002802D15F
:104B10000920000202E0C3001818000268616969F8
:104B20000198814201D901986861002028612873A9
:104B3000012000036881039832002100FFF7AAFFDB
:104B400004E0641C2406240E8442C1D361488068BA
:104B5000804707B0F0BDFFB581B01E0000273C00C4
:104B600016E02001315C00290FD085190298E91C5C
:104B7000062248F08DFD002807D168780199884207
:104B800003D10398A97801270170641C2406240E20
:104B9000504840688442E4D3380005B0F0BDF7B512
:104BA000160000273C0014E018206043315C002907
:104BB0000CD085190198291D062248F069FD0028AE
:104BC00004D169780098814200D10127641C240631
:104BD000240E404800688442E6D33800FEBDFFB58D
:104BE00081B01E0000273C0016E018206043315CB5
:104BF00000290ED085190298291D062248F048FD8B
:104C0000002806D169780198814202D103980127D2
:104C10000470641C2406240E2E4800688442E4D3E9
:104C20003800BAE7F8B50D0007002A4E00240CE062
:104C300018206043285C002804D02A002100380096
:104C4000FFF728FF641C2406240E30688442EFD34B
:104C5000F8BD70B500248300CC501E4D210008E043
:104C60004B009E187678864200D1D454491C090620
:104C7000090E2B689942F3D370BD80000858704725
:104C800070B50021134D0C0007E04A004B1D1618AB
:104C9000491C09067370090E84542A689142F4D3A2
:104CA00070BD0C4A0023DB4310B5126800210CE0F4
:104CB0004C00045D002C05D1012249004254081823
:104CC000835604E0491C0906090E9142F0D31800EE
:104CD00010BD000080FA0400234B10B51B680400CF
:104CE00000209C42F4D218236343D45C002CEFD004
:104CF0009818C07808700120EAE7FFB581B08020DD
:104D00000A9E49F092E900901748002420E01827F5
:104D10006743F05D002818D0BD1968780299884271
:104D200013D10199281D062248F0B2FC743E270ACF
:104D300001000000B44B000000040000D732A56061
:104D400000280CD11820604303998019C07808709E
:104D50000499A87808700020F055286106E0641CCA
:104D60002406240E054800688442DAD3009849F0EE
:104D700066E902488068804719E7000080FA04006D
:104D8000FF480188828891421FD10189828991421E
:104D90001BD1018A828A914217D1018B808B81427B
:104DA00013D1F74820300188828891420DD10189C2
:104DB0008289914209D1018A828A914205D1018B6F
:104DC000808B814201D1012070470020704730B5AF
:104DD0005B070C785B0FE408E4001C439F23039DF2
:104DE0001C400C7054040AD5920408D5C269FF24F3
:104DF000641C2243C2610878184020300870002DDE
:104E000003D0087880221043087030BD01221203BD
:104E100002430F200002824308021043704710B57E
:104E2000038D9B055B0E032B11D900290CD0C169A2
:104E300020248023002A09D0CA0502D421439943A3
:104E400001E01943A143C161012010BDF9E7002031
:104E500010BDFFB581B00E001F0001890A9D0C181E
:104E60002421200049F012E9A421002F02D00120C2
:104E7000000300E000200843608003208003054316
:104E8000280A257160712000062231000C3049F09B
:104E900002E903990622A01D49F0FCE8200005B0B4
:104EA000F0BD70B5040016001D000622801D49F0FB
:104EB000F2E82000062231000C3049F0ECE8200036
:104EC00006222900123049F0E6E870BDFFB581B036
:104ED00004000E0017000B9D202149F0D8E8A078AF
:104EE000F3210840B10008430007000F39010843CF
:104EF000A0700A9A04992B002000FFF7D2FFCEE79A
:104F000003000820002905D0002B01D0C82004E0B0
:104F1000482002E0002B00D08820002A02D0012186
:104F2000490308437047F8B500240028079E069DF2
:104F30000AD00407A40F04D0924958690968884729
:104F400019E0800717D5012408880C3808804038FC
:104F50000004000C9880CF787F0710D40F7E3F07A5
:104F60000DD0002C09D00888683A8118082230003A
:104F700049F090E803E00020F8BD0838988001204F
:104F80002C60F8BD7CB50E000588069C083D0580A8
:104F900095881900083D9580320024316B4625F034
:104FA00020FF00982168884205D1019861688842F5
:104FB00001D101207CBD00207CBD02800B607047C8
:104FC000F0B5012A069D059C13D0022A15D0042AAB
:104FD0002DD14A780E78120292194E790F79360245
:104FE000F619CF7812043602120CF61989783602B7
:104FF00012E00A788E78120202E04A780E781202E5
:105000009219CE798F793602F6194F791204360249
:105010000979120CF6193602711826688E4202D1EF
:105020001F88974203D2771C03D08E4201D90120FA
:10503000F0BD002801D01A8021602A800798016005
:105040000020F0BD002804D0D078820701D4C0072A
:1050500001D1002088807047002810B51CD0D0787E
:10506000840719D4C00717D1907C1C78A04213D1B3
:10507000D07C5C78A0420FD1107D9C78A0420BD1EF
:10508000507DDC78A04207D1907D1C79A04203D1ED
:10509000D07D5A79904201D00020888010BD70B533
:1050A0000D001400190000280BD0E278900708D5F5
:1050B000D00706D1200006220C3048F0F3FA002871
:1050C00001D00020A88070BD81780909042901D091
:1050D0000C2903D1C178BF221140C170C0784006AD
:1050E000C017401C704710B5040008001100C278BA
:1050F000D30708D1920706D50622123048F0D2FA1B
:10510000002800D1A08010BDF0B500260C8B1788B8
:1051100025090C7E2407240FAF4214D1C9780A0751
:1051200006D5490704D4002C00D003E08680F0BDEA
:10513000002C03D01988491CA142F7D1A69EC58D29
:1051400001000000B04F00000004000084E8760C6D
:1051500005998C42F4D21C80F0BD002CF0D1158052
:10516000F9E7F8B505002030007D0E00C0061700F5
:10517000800F022801D0032814D128000124183000
:1051800048F09AEF000600D50524287DC10906D015
:10519000022103E040A0008098FA04000C4340067E
:1051A000400E01E0E87E002434703870F8BDFFB591
:1051B0008BB01C00050003261498002826D0082276
:1051C000210001A848F070EF8C49062201A848F0A0
:1051D00073FA002818D089490622891F01A848F0CF
:1051E0006BFA002812D1854901AF02220A39B81D95
:1051F00048F062FA002809D0804902220839B81D17
:1052000048F05AFA002801D0083402260D992022CD
:1052100003A848F04AEF0E3C022E03D1A8880838B4
:10522000A88006E0A988080A090208432073000A3A
:1052300060736B46D87B724FC0076F4403D1062260
:1052400004A9891C01E006223900200048F02CEF57
:105250006B46D87B810702D4062206A907E0C00767
:1052600003D0062209A9891C01E006223900A01DED
:1052700048F01AEFA8880E30A8800C98046030001F
:105280000FB0F0BD70B51E000378049C1370437816
:10529000537083789370C078800903012070181AC6
:1052A0004018407B002802D01025012001E008258D
:1052B000002030700020ED1E08E0267833019B1B93
:1052C0005B181B1816189B7B401CF370A842F4D384
:1052D00070BD002810B50ED0C87840070BD5494CDA
:1052E00002E0012048F048EF606848F056EF61683E
:1052F00049888842F5D010BDC178490702D4007EA4
:10530000000700D00120704780780107890F02292B
:1053100006D10009042801D00C2801D101207047D2
:1053200000207047384B02000800596991435961C9
:1053300000E0401E9969114201D00028F9D1704760
:10534000F7B584B0002425002F4802942F4E416900
:10535000049A43061A43114341612B4980310A697B
:1053600007231B041A430A61274BC033196808221C
:1053700091431960264B1968914319608769FFF7BB
:10538000BFF801917F2149050122520500900EE0EE
:105390001D486D1C87691F480069084001D0831AA9
:1053A00003D1864201D1641C00E000240600069867
:1053B0008442EDD3FFF7A4F8009A019B801A114AAA
:1053C0009941D16090600498B84301D001200290C7
:1053D0000F4801680822114301600B48C030016882
:1053E00011430160084A803211690720000481439B
:1053F000116105980560029807B0F0BD26F1040020
:105400001E00000098FA040040A20080452301001D
:1054100000A7008080A80080FE48FF4A016904E0E0
:10542000002000E0401C8842FCD3506BC007F7D13D
:10543000704730B5CA780B78120613438A784C78D7
:105440001204240222431343F44A1360CC790B79EB
:10545000240623438C794D7924042D022C432343C5
:105460005360CC7A0B7A240623438C7A4D7A240439
:105470002D022C4323439360CC7B0B7B24062343D8
:105480008C7B497B240409020C432343D360E2490B
:1054900002684A60406888600020086030BDE048CB
:1054A000C269032109028A43C261C2690A43C26117
:1054B000D8488068004730B50100C4781231E2074F
:1054C000002A01D1821D00E00A000300A5070C3369
:1054D000002D01DB190003E0E40701D001001A31BF
:1054E000C8780C780006044388784D7800042D02B3
:1054F00028430443C948C4624C79097924020C4307
:105500000463D478117824062143947855782404D0
:105510002D022C4321434162517912790902114332
:105520008162DA781978120611439A785C7812044D
:10553000240222431143016159791A790902114366
:10554000416130BDFFB581B004001600559F9BA896
:1055500001000000AC530000000400003B2D53BFCD
:10556000B1480C9F00680B9D8047009039002800CF
:10557000FFF769FFFFF75AFFAC4D00202860E86A8B
:10558000A86A286BAA4F20002830B8632088F863E7
:10559000A7490298403108602000FFF796FF0A985B
:1055A0007863E078400701D408202860049930042B
:1055B0000843F861300C38622020B861207E000773
:1055C000286801D09C4900E09C4908432860964D1A
:1055D000E8688047FFF72AFFE078400701D4FFF72B
:1055E00068FF69680098884705B0F0BDFFB581B0D5
:1055F00006000D008C480A9F006800248047009038
:105600000B993800FFF71FFFFFF710FF87480021B5
:105610000160C16A816A006B854FBD630398F863BE
:105620008348403005603000FFF74FFF04987863EF
:10563000F078400700D40824307E814D000711D057
:105640000C980068A8610D980068E8610E980068E1
:1056500028620F980068686210980068A86276480F
:10566000001F01E07548001F704F04433C606E4C02
:10567000E0688047FFF7DAFE7F6B0E200740F07886
:1056800040070ED529690C98016069690D98016081
:10569000E96A0E980160286B0F990860696B109891
:1056A0000160FFF706FF61680098884738009BE7B4
:1056B000FFB581B005001C005B480A9E006880476A
:1056C0000090FFF7B3FE5948C16A00270760E278EF
:1056D000217812061143A278637812041B021A4340
:1056E00011438161E279217912061143A27963792C
:1056F00012041B021A431143C161012E15D1E27A33
:10570000217A12061143A27A637A12041B021A4309
:1057100011430162E27B217B12061143A27B637B72
:1057200012041B021A4311434162217829706178E7
:105730006970A178A9700B998901E9703C498F6162
:10574000029A8A633A4A2D1D40321560039ACA6351
:10575000B101491C042211430160334CE0688047C9
:10576000FFF764FEFFF7A5FE6168009888473BE7F6
:10577000FFB581B01C002C4E0A9F30688047009016
:10578000FFF754FE294DE86A00202860E178207870
:1057900009060843A17862780904120211430843FC
:1057A000A861E179207909060843A17962790904A1
:1057B000120211430843E861012F15D1E17A207AE2
:1057C00009060843A17A627A0904120211430843C8
:1057D0002862E17B207B09060843A17B627B0904E8
:1057E0001202114308436862114802998163104A0A
:1057F0000199403211600399C1630B99B801C978CE
:10580000401C490701D4082108432860F0688047FC
:10581000FFF70CFE686B4007C417641CFFF749FED6
:105820007168009888470DE0A8FA040000B1009064
:1058300000B00090402000804700020047000300B5
:1058400080B000902000CFE6FFB581B000250F00AA
:10585000002827D0417803780E021E43082A01D081
:10586000052A03D104002C340C2519E0042A19D18F
:105870000400203414E02078B8420CD104980028A9
:1058800006D00A9A0499A01C47F020FF002802D1F4
:10589000200005B0F0BD6078AD1C4519A41C0419AA
:1058A000B542E8D30020F4E7FFB5002085B004003E
:1058B0001D000E9E04900698007803900698477885
:1058C000802048F0D0EB02900398DD2803D1069C9D
:1058D000A41C06200490049A0092039905982300C2
:1058E0000822FFF7B1FF04000021002808D1079C1F
:1058F000002F297007D1029848F0B4EB09B0F0BD31
:105900006078801C287007982A78001B801A02068D
:10591000FA4B120E002F06D1317028785B680119FE
:105920002000984715E0BF1C3806000E307029781B
:10593000884203D909199B68001904E0884203D002
:105940005B6809190019984732780699200048F0D9
:10595000B6EB0598417802780802297802D896714A
:1059600001000000A85700000004000068F780D381
:105970001043401A3178401805990870000A4870A1
:10598000C3E7002810B509D02A2452000A43047046
:10599000012499000A4344708270032010BD032241
:1059A00002700122427081700320704710B50C0014
:1059B0000021217001002022A01C48F006EC60703C
:1059C000801C0006000E10BDF8B50D000600170083
:1059D00000240E2148F0FCEB082803D908380406FF
:1059E000240E0820002F04D101210200297031006B
:1059F00005E0002C0BD03221297031182200A81CA0
:105A000048F0E2EB6870801C0006000EF8BD002034
:105A1000F8BDF7B582B015000C00029807784678FB
:105A20000420042E00D23000019017E02078DD28F9
:105A30000FD1DD2F0DD161780198814200D208008D
:105A400002000298A11C801C47F04AFE002807DBD8
:105A500001E0B84204D26078A41C0419AC42E5D33A
:105A6000AC4208D2A919891C03E028786D1E087081
:105A7000491EA542F9D20299B21C200048F028EB39
:105A8000B01C10E7FFB581B000260C9F0B9C002FC7
:105A90000DD002990498081A9D49052A03D0082AB6
:105AA00005D1098800E049880D1A002D22DC00206C
:105AB000F9E66178BF1EB9421EDC2078019A904257
:105AC00014D130281AD0DD2810D1891CA94213DC4A
:105AD00002980A998219049841182000FFF799FF4B
